{
  "contractName": "IUSDETHOracle",
  "abi": [
    {
      "constant": true,
      "inputs": [
        {
          "name": "",
          "type": "bytes32"
        }
      ],
      "name": "myidList",
      "outputs": [
        {
          "name": "",
          "type": "bool"
        }
      ],
      "payable": false,
      "stateMutability": "view",
      "type": "function"
    },
    {
      "constant": true,
      "inputs": [],
      "name": "url",
      "outputs": [
        {
          "name": "",
          "type": "string"
        }
      ],
      "payable": false,
      "stateMutability": "view",
      "type": "function"
    },
    {
      "constant": true,
      "inputs": [],
      "name": "ethUsdString",
      "outputs": [
        {
          "name": "",
          "type": "string"
        }
      ],
      "payable": false,
      "stateMutability": "view",
      "type": "function"
    },
    {
      "constant": true,
      "inputs": [],
      "name": "intervalInSeconds",
      "outputs": [
        {
          "name": "",
          "type": "uint256"
        }
      ],
      "payable": false,
      "stateMutability": "view",
      "type": "function"
    },
    {
      "constant": true,
      "inputs": [],
      "name": "lastUpdated",
      "outputs": [
        {
          "name": "",
          "type": "uint256"
        }
      ],
      "payable": false,
      "stateMutability": "view",
      "type": "function"
    },
    {
      "constant": true,
      "inputs": [],
      "name": "ethUsdUint",
      "outputs": [
        {
          "name": "",
          "type": "uint256"
        }
      ],
      "payable": false,
      "stateMutability": "view",
      "type": "function"
    },
    {
      "constant": true,
      "inputs": [],
      "name": "lock",
      "outputs": [
        {
          "name": "",
          "type": "bool"
        }
      ],
      "payable": false,
      "stateMutability": "view",
      "type": "function"
    },
    {
      "constant": true,
      "inputs": [],
      "name": "admin",
      "outputs": [
        {
          "name": "",
          "type": "address"
        }
      ],
      "payable": false,
      "stateMutability": "view",
      "type": "function"
    },
    {
      "constant": true,
      "inputs": [],
      "name": "getPrice",
      "outputs": [
        {
          "name": "",
          "type": "string"
        }
      ],
      "payable": false,
      "stateMutability": "view",
      "type": "function"
    },
    {
      "constant": true,
      "inputs": [],
      "name": "getUintPrice",
      "outputs": [
        {
          "name": "",
          "type": "uint256"
        }
      ],
      "payable": false,
      "stateMutability": "view",
      "type": "function"
    }
  ],
  "bytecode": "0x60606040526003805460a060020a60ff0219169055341561001f57600080fd5b6103ea8061002e6000396000f3006060604052600436106100a35763ffffffff7c01000000000000000000000000000000000000000000000000000000006000350416633c735f5481146100a85780635600f04f146100d257806358836e9f1461015c5780635d1b00881461018157806364a1d7891461019457806398d5fdca146101a7578063d0b06f5d146101ba578063f379a7e7146101cd578063f83d08ba146101e0578063f851a440146101f3575b600080fd5b34156100b357600080fd5b6100be60043561022f565b604051901515815260200160405180910390f35b34156100dd57600080fd5b6100e5610244565b60405160208082528190810183818151815260200191508051906020019080838360005b83811015610121578082015183820152602001610109565b50505050905090810190601f16801561014e5780820380516001836020036101000a031916815260200191505b509250505060405180910390f35b341561016757600080fd5b61016f6102e2565b60405190815260200160405180910390f35b341561018c57600080fd5b6100e56102e7565b341561019f57600080fd5b61016f610352565b34156101b257600080fd5b6100e5610358565b34156101c557600080fd5b61016f610363565b34156101d857600080fd5b61016f610369565b34156101eb57600080fd5b6100be61036f565b34156101fe57600080fd5b610206610390565b60405173ffffffffffffffffffffffffffffffffffffffff909116815260200160405180910390f35b60056020526000908152604090205460ff1681565b60068054600181600116156101000203166002900480601f0160208091040260200160405190810160405280929190818152602001828054600181600116156101000203166002900480156102da5780601f106102af576101008083540402835291602001916102da565b820191906000526020600020905b8154815290600101906020018083116102bd57829003601f168201915b505050505081565b600090565b60008054600181600116156101000203166002900480601f0160208091040260200160405190810160405280929190818152602001828054600181600116156101000203166002900480156102da5780601f106102af576101008083540402835291602001916102da565b60045481565b6103606103ac565b90565b60025481565b60015481565b60035474010000000000000000000000000000000000000000900460ff1681565b60035473ffffffffffffffffffffffffffffffffffffffff1681565b602060405190810160405260008152905600a165627a7a7230582056fd181d05d5c9210f455c946bc8f4d27dcdd85bb6f80e2f1818f237f4e2e3f00029",
  "source": "pragma solidity ^0.4.21;\n\n\n// Interface for the Oracle\ncontract IUSDETHOracle {\n\n    string public ethUsdString;\n    uint public ethUsdUint;\n    uint public lastUpdated;\n\n    address public admin;\n    bool public lock = false;\n    uint256 public intervalInSeconds;\n    mapping(bytes32 => bool) public myidList;\n    string public url;\n\n    // solhint-disable no-empty-blocks\n    function getPrice() public constant returns (string) {}\n\n    function getUintPrice() public constant returns (uint) { }\n    // solhint-enable\n}",
  "sourcePath": "/Users/alexander/Development/ujo.js/packages/contracts/licensing/contracts/IUSDETHOracle.sol",
  "compiler": {
    "name": "solc",
    "version": "0.4.21+commit.dfe3193c.Emscripten.clang"
  },
  "schemaVersion": "3.0.1",
  "updatedAt": "2019-01-31T22:44:23.542Z",
  "devdoc": {
    "methods": {}
  },
  "userdoc": {
    "methods": {}
  }
}