{
  "contractName": "ETHUSDHandler",
  "abi": [
    {
      "anonymous": false,
      "inputs": [
        {
          "indexed": false,
          "name": "cid",
          "type": "string"
        },
        {
          "indexed": false,
          "name": "oracle",
          "type": "address"
        },
        {
          "indexed": true,
          "name": "ethUSD",
          "type": "uint256"
        },
        {
          "indexed": true,
          "name": "value",
          "type": "uint256"
        },
        {
          "indexed": false,
          "name": "issuer",
          "type": "address"
        },
        {
          "indexed": true,
          "name": "buyer",
          "type": "address"
        },
        {
          "indexed": false,
          "name": "beneficiaries",
          "type": "address[]"
        },
        {
          "indexed": false,
          "name": "amounts",
          "type": "uint256[]"
        }
      ],
      "name": "LogPayment",
      "type": "event",
      "signature": "0x874b36e7ae1e54e2762bcea268c67619c92f7d45dab1a8cb7c098a9cb5f2e9b5"
    },
    {
      "constant": false,
      "inputs": [
        {
          "name": "_cid",
          "type": "string"
        },
        {
          "name": "_oracle",
          "type": "address"
        },
        {
          "name": "_buyer",
          "type": "address"
        },
        {
          "name": "_beneficiaries",
          "type": "address[]"
        },
        {
          "name": "_amounts",
          "type": "uint256[]"
        },
        {
          "name": "_notifiers",
          "type": "address[]"
        }
      ],
      "name": "pay",
      "outputs": [],
      "payable": true,
      "stateMutability": "payable",
      "type": "function",
      "signature": "0x6f49b98b"
    }
  ],
  "bytecode": "0x6060604052341561000f57600080fd5b6105a98061001e6000396000f3006060604052600436106100275763ffffffff60e060020a6000350416636f49b98b811461002c575b600080fd5b61014a60046024813581810190830135806020601f820181900481020160405190810160405281815292919060208401838380828437509496600160a060020a03873581169760208082013590921697509195506060820194506040918201358601808201945035925082918282029091019051908101604052809392919081815260200183836020028082843782019150505050505091908035906020019082018035906020019080806020026020016040519081016040528093929190818152602001838360200280828437820191505050505050919080359060200190820180359060200190808060200260200160405190810160405280939291908181526020018383602002808284375094965061014c95505050505050565b005b600080600080855187511461016057600080fd5b3415156101845786511561017357600080fd5b85511561017f57600080fd5b610239565b600092505b85518310156101b75785838151811061019e57fe5b9060200190602002015184019350600183019250610189565b3484146101c357600080fd5b600092505b8651831015610239578683815181106101dd57fe5b90602001906020020151600160a060020a03166108fc8785815181106101ff57fe5b906020019060200201519081150290604051600060405180830381858888f19350505050151561022e57600080fd5b6001830192506101c8565b88915081600160a060020a03166358836e9f6040518163ffffffff1660e060020a028152600401602060405180830381600087803b151561027957600080fd5b5af1151561028657600080fd5b5050506040518051600094509150505b8451831015610424578483815181106102ab57fe5b90602001906020020151600160a060020a0316637dab14eb8b8b8b8b8b60405160e060020a63ffffffff8816028152600160a060020a0380861660248301528416604482015260a0600482019081529081906064810190608481019060a40189818151815260200191508051906020019080838360005b8381101561033a578082015183820152602001610322565b50505050905090810190601f1680156103675780820380516001836020036101000a031916815260200191505b50848103835286818151815260200191508051906020019060200280838360005b838110156103a0578082015183820152602001610388565b50505050905001848103825285818151815260200191508051906020019060200280838360005b838110156103df5780820151838201526020016103c7565b5050505090500198505050505050505050600060405180830381600087803b151561040957600080fd5b5af1151561041657600080fd5b505050600183019250610296565b87600160a060020a031634827f874b36e7ae1e54e2762bcea268c67619c92f7d45dab1a8cb7c098a9cb5f2e9b58d8d338d8d604051600160a060020a0380861660208301528416604082015260a0808252819060608201906080830190830189818151815260200191508051906020019080838360005b838110156104b357808201518382015260200161049b565b50505050905090810190601f1680156104e05780820380516001836020036101000a031916815260200191505b50848103835286818151815260200191508051906020019060200280838360005b83811015610519578082015183820152602001610501565b50505050905001848103825285818151815260200191508051906020019060200280838360005b83811015610558578082015183820152602001610540565b505050509050019850505050505050505060405180910390a4505050505050505050505600a165627a7a723058207ffeba408c56281aeaa655aba6d928e41bb875ff971c9a26eb3c20ca33987fde0029",
  "source": "pragma solidity ^0.4.21; //solhint-disable-line\nimport \"./IUSDETHOracle.sol\";\n\n\n// Interface for Recipient.\n// NOTE: Does not currently support ERC165 [for interface signature checking].\n// Future Handler Deployments Will Incorporate This.\ncontract IRecipient {\n    function receiveNotification(string _cid,\n    address _oracle,\n    address _buyer,\n    address[] _beneficiaries,\n    uint256[] _amounts) public payable;\n}\n\n\ncontract ETHUSDHandler {\n\n    function pay(string _cid,\n    address _oracle,\n    address _buyer, // this is for the case that someone else pays on your behalf\n    address[] _beneficiaries,\n    uint256[] _amounts,\n    address[] _notifiers) public payable {\n\n        // checks if the payment isn't egregiously malformed.\n        require(_beneficiaries.length == _amounts.length);\n\n        if (msg.value == 0) {\n            require(_beneficiaries.length == 0);\n            require(_amounts.length == 0);\n        } else {\n            uint256 totaltoPay;\n            for (uint256 i = 0; i < _amounts.length; i += 1) {\n                totaltoPay += _amounts[i];\n            }\n            require(totaltoPay == msg.value);\n\n            for (i = 0; i < _beneficiaries.length; i += 1) {\n                _beneficiaries[i].transfer(_amounts[i]);\n            }\n        }\n\n        IUSDETHOracle oracle = IUSDETHOracle(_oracle);\n        uint256 ethUSD = oracle.getUintPrice();\n\n        // notify any contracts about this payment\n        for (i = 0; i < _notifiers.length; i += 1) {\n            IRecipient(_notifiers[i]).receiveNotification(_cid,\n                _oracle,\n                _buyer,\n                _beneficiaries,\n                _amounts);\n        }\n\n        LogPayment(\n            _cid,\n            _oracle,\n            ethUSD,\n            msg.value,\n            msg.sender,\n            _buyer,\n            _beneficiaries,\n            _amounts)\n        ;\n    }\n\n    event LogPayment(string cid,\n    address oracle,\n    uint256 indexed ethUSD,\n    uint256 indexed value,\n    address issuer,\n    address indexed buyer,\n    address[] beneficiaries,\n    uint256[] amounts);\n\n}",
  "sourcePath": "/Users/alexander/Development/ujo.js/packages/contracts-licensing/contracts/ETHUSDHandler.sol",
  "compiler": {
    "name": "solc",
    "version": "0.4.21+commit.dfe3193c.Emscripten.clang"
  },
  "schemaVersion": "3.0.1",
  "updatedAt": "2019-02-04T20:26:21.243Z",
  "devdoc": {
    "methods": {}
  },
  "userdoc": {
    "methods": {}
  }
}