{
  "contractName": "Migrations",
  "abi": [
    {
      "constant": true,
      "inputs": [],
      "name": "last_completed_migration",
      "outputs": [
        {
          "name": "",
          "type": "uint256"
        }
      ],
      "payable": false,
      "stateMutability": "view",
      "type": "function",
      "signature": "0x445df0ac"
    },
    {
      "constant": true,
      "inputs": [],
      "name": "owner",
      "outputs": [
        {
          "name": "",
          "type": "address"
        }
      ],
      "payable": false,
      "stateMutability": "view",
      "type": "function",
      "signature": "0x8da5cb5b"
    },
    {
      "inputs": [],
      "payable": false,
      "stateMutability": "nonpayable",
      "type": "constructor",
      "signature": "constructor"
    },
    {
      "constant": false,
      "inputs": [
        {
          "name": "completed",
          "type": "uint256"
        }
      ],
      "name": "setCompleted",
      "outputs": [],
      "payable": false,
      "stateMutability": "nonpayable",
      "type": "function",
      "signature": "0xfdacd576"
    },
    {
      "constant": false,
      "inputs": [
        {
          "name": "new_address",
          "type": "address"
        }
      ],
      "name": "upgrade",
      "outputs": [],
      "payable": false,
      "stateMutability": "nonpayable",
      "type": "function",
      "signature": "0x0900f010"
    }
  ],
  "bytecode": "0x6060604052341561000f57600080fd5b60008054600160a060020a033316600160a060020a03199091161790556102318061003b6000396000f3006060604052600436106100615763ffffffff7c01000000000000000000000000000000000000000000000000000000006000350416630900f0108114610066578063445df0ac146100945780638da5cb5b146100b9578063fdacd576146100f5575b600080fd5b341561007157600080fd5b61009273ffffffffffffffffffffffffffffffffffffffff6004351661010b565b005b341561009f57600080fd5b6100a76101b6565b60405190815260200160405180910390f35b34156100c457600080fd5b6100cc6101bc565b60405173ffffffffffffffffffffffffffffffffffffffff909116815260200160405180910390f35b341561010057600080fd5b6100926004356101d8565b600080543373ffffffffffffffffffffffffffffffffffffffff908116911614156101b2578190508073ffffffffffffffffffffffffffffffffffffffff1663fdacd5766001546040517c010000000000000000000000000000000000000000000000000000000063ffffffff84160281526004810191909152602401600060405180830381600087803b15156101a157600080fd5b5af115156101ae57600080fd5b5050505b5050565b60015481565b60005473ffffffffffffffffffffffffffffffffffffffff1681565b6000543373ffffffffffffffffffffffffffffffffffffffff908116911614156102025760018190555b505600a165627a7a72305820cc95e138a4b8fcd29e232dcae0f63fe16a0f015dbc3ea3470ac5f929c30e50140029",
  "source": "pragma solidity ^0.4.19;\n\n\ncontract Migrations {\n    address public owner;\n    uint public last_completed_migration; //solhint-disable-line var-name-mixedcase\n\n    modifier restricted() {\n        if (msg.sender == owner) _;\n    }\n\n    function Migrations() public {\n        owner = msg.sender;\n    }\n\n    function setCompleted(uint completed) public restricted {\n        last_completed_migration = completed;\n    }\n\n    function upgrade(address new_address) public restricted { //solhint-disable-line func-param-name-mixedcase\n        Migrations upgraded = Migrations(new_address);\n        upgraded.setCompleted(last_completed_migration);\n    }\n}",
  "sourcePath": "/Users/alexander/Development/ujo.js/packages/contracts-licensing/contracts/Migrations.sol",
  "compiler": {
    "name": "solc",
    "version": "0.4.21+commit.dfe3193c.Emscripten.clang"
  },
  "schemaVersion": "3.0.1",
  "updatedAt": "2019-02-04T20:26:21.234Z",
  "devdoc": {
    "methods": {}
  },
  "userdoc": {
    "methods": {}
  }
}