{
  "contractName": "TestOracle",
  "abi": [
    {
      "constant": true,
      "inputs": [],
      "name": "price",
      "outputs": [
        {
          "name": "",
          "type": "uint256"
        }
      ],
      "payable": false,
      "stateMutability": "view",
      "type": "function"
    },
    {
      "constant": true,
      "inputs": [],
      "name": "lastUpdated",
      "outputs": [
        {
          "name": "",
          "type": "uint256"
        }
      ],
      "payable": false,
      "stateMutability": "view",
      "type": "function"
    },
    {
      "constant": true,
      "inputs": [],
      "name": "getUintPrice",
      "outputs": [
        {
          "name": "",
          "type": "uint256"
        }
      ],
      "payable": false,
      "stateMutability": "view",
      "type": "function"
    },
    {
      "constant": false,
      "inputs": [
        {
          "name": "_price",
          "type": "uint256"
        }
      ],
      "name": "setPrice",
      "outputs": [],
      "payable": false,
      "stateMutability": "nonpayable",
      "type": "function"
    }
  ],
  "bytecode": "0x60606040526001600055341561001457600080fd5b60ff806100226000396000f300606060405260043610605c5763ffffffff7c010000000000000000000000000000000000000000000000000000000060003504166358836e9f8114606157806391b7f5ed146083578063a035b1fe146098578063d0b06f5d1460a8575b600080fd5b3415606b57600080fd5b607160b8565b60405190815260200160405180910390f35b3415608d57600080fd5b609660043560be565b005b341560a257600080fd5b607160c7565b341560b257600080fd5b607160cd565b60005490565b42600155600055565b60005481565b600154815600a165627a7a723058206d3792322f7e1a2de6e747898751a70e764e0de63205d462ae0ff61d5ec42dea0029",
  "source": "/*\nUsed in testing to see if the Handler properly fetches it.\nRelies on getPrice() to return a string.\n*/\npragma solidity ^0.4.21;\n\n\ncontract TestOracle {\n    uint public price = 1; // 1 eth = 1 usd for simplicity of testing.\n    uint256 public lastUpdated;\n\n    function getUintPrice() public view returns (uint) {\n        return price;\n    }\n\n    function setPrice(uint _price) public {\n        lastUpdated = now; // solhint-disable-line not-rely-on-time\n        price = _price;\n    }\n}\n",
  "sourcePath": "/Users/alexander/Development/ujo.js/packages/contracts-licensing/contracts/TestOracle.sol",
  "compiler": {
    "name": "solc",
    "version": "0.4.21+commit.dfe3193c.Emscripten.clang"
  },
  "schemaVersion": "3.0.1",
  "updatedAt": "2019-02-04T20:25:24.714Z",
  "devdoc": {
    "methods": {}
  },
  "userdoc": {
    "methods": {}
  }
}