{
  "contractName": "TestNotification",
  "abi": [
    {
      "constant": true,
      "inputs": [],
      "name": "counter",
      "outputs": [
        {
          "name": "",
          "type": "uint256"
        }
      ],
      "payable": false,
      "stateMutability": "view",
      "type": "function"
    },
    {
      "constant": true,
      "inputs": [
        {
          "name": "",
          "type": "uint256"
        }
      ],
      "name": "additionalData",
      "outputs": [
        {
          "name": "cid",
          "type": "string"
        },
        {
          "name": "oracle",
          "type": "address"
        },
        {
          "name": "minted",
          "type": "uint256"
        }
      ],
      "payable": false,
      "stateMutability": "view",
      "type": "function"
    },
    {
      "constant": false,
      "inputs": [
        {
          "name": "_cid",
          "type": "string"
        },
        {
          "name": "_oracle",
          "type": "address"
        },
        {
          "name": "_buyer",
          "type": "address"
        },
        {
          "name": "_beneficiaries",
          "type": "address[]"
        },
        {
          "name": "_amounts",
          "type": "uint256[]"
        }
      ],
      "name": "receiveNotification",
      "outputs": [],
      "payable": false,
      "stateMutability": "nonpayable",
      "type": "function"
    },
    {
      "constant": true,
      "inputs": [
        {
          "name": "_tokenId",
          "type": "uint256"
        }
      ],
      "name": "getCid",
      "outputs": [
        {
          "name": "",
          "type": "string"
        }
      ],
      "payable": false,
      "stateMutability": "view",
      "type": "function"
    },
    {
      "constant": true,
      "inputs": [
        {
          "name": "_tokenId",
          "type": "uint256"
        }
      ],
      "name": "getBeneficiaries",
      "outputs": [
        {
          "name": "",
          "type": "address[]"
        }
      ],
      "payable": false,
      "stateMutability": "view",
      "type": "function"
    },
    {
      "constant": true,
      "inputs": [
        {
          "name": "_tokenId",
          "type": "uint256"
        }
      ],
      "name": "getAmounts",
      "outputs": [
        {
          "name": "",
          "type": "uint256[]"
        }
      ],
      "payable": false,
      "stateMutability": "view",
      "type": "function"
    },
    {
      "constant": true,
      "inputs": [
        {
          "name": "_tokenId",
          "type": "uint256"
        }
      ],
      "name": "getOracle",
      "outputs": [
        {
          "name": "",
          "type": "address"
        }
      ],
      "payable": false,
      "stateMutability": "view",
      "type": "function"
    },
    {
      "constant": true,
      "inputs": [
        {
          "name": "_tokenId",
          "type": "uint256"
        }
      ],
      "name": "getMinted",
      "outputs": [
        {
          "name": "",
          "type": "uint256"
        }
      ],
      "payable": false,
      "stateMutability": "view",
      "type": "function"
    }
  ],
  "bytecode": "0x60606040526000600155341561001457600080fd5b61091c806100236000396000f30060606040526004361061008d5763ffffffff7c010000000000000000000000000000000000000000000000000000000060003504166310a9de6081146100925780631a9e379f146100c45780633beaa6ab146100ec57806359f7cf501461017957806361bc221a146101e2578063783804d9146101f55780637dab14eb1461020b578063c7261ad3146102f6575b600080fd5b341561009d57600080fd5b6100a860043561039b565b604051600160a060020a03909116815260200160405180910390f35b34156100cf57600080fd5b6100da6004356103b9565b60405190815260200160405180910390f35b34156100f757600080fd5b6101026004356103ce565b60405160208082528190810183818151815260200191508051906020019080838360005b8381101561013e578082015183820152602001610126565b50505050905090810190601f16801561016b5780820380516001836020036101000a031916815260200191505b509250505060405180910390f35b341561018457600080fd5b61018f60043561048b565b60405160208082528190810183818151815260200191508051906020019060200280838360005b838110156101ce5780820151838201526020016101b6565b505050509050019250505060405180910390f35b34156101ed57600080fd5b6100da6104fd565b341561020057600080fd5b61018f600435610503565b341561021657600080fd5b6102f460046024813581810190830135806020601f820181900481020160405190810160405281815292919060208401838380828437509496600160a060020a038735811697602080820135909216975091955060608201945060409182013586018082019450359250829182820290910190519081016040528093929190818152602001838360200280828437820191505050505050919080359060200190820180359060200190808060200260200160405190810160405280939291908181526020018383602002808284375094965061057f95505050505050565b005b341561030157600080fd5b61030c60043561065a565b604051600160a060020a03831660208201526040810182905260608082528190810185818151815260200191508051906020019080838360005b8381101561035e578082015183820152602001610346565b50505050905090810190601f16801561038b5780820380516001836020036101000a031916815260200191505b5094505050505060405180910390f35b600090815260208190526040902060030154600160a060020a031690565b60009081526020819052604090206004015490565b6103d6610726565b6000808381526020019081526020016000206000018054600181600116156101000203166002900480601f01602080910402602001604051908101604052809291908181526020018280546001816001161561010002031660029004801561047f5780601f106104545761010080835404028352916020019161047f565b820191906000526020600020905b81548152906001019060200180831161046257829003601f168201915b50505050509050919050565b610493610726565b60008083815260200190815260200160002060020180548060200260200160405190810160405280929190818152602001828054801561047f57602002820191906000526020600020905b8154815260200190600101908083116104de5750505050509050919050565b60015481565b61050b610726565b60008083815260200190815260200160002060010180548060200260200160405190810160405280929190818152602001828054801561047f57602002820191906000526020600020905b8154600160a060020a031681526001909101906020018083116105565750505050509050919050565b610587610738565b85815260208082018490526040808301849052600160a060020a0387166060840152426080840152600154600090815291829052902081908151819080516105d392916020019061077a565b506020820151816001019080516105ee9291602001906107f8565b50604082015181600201908051610609929160200190610868565b50606082015160038201805473ffffffffffffffffffffffffffffffffffffffff1916600160a060020a03929092169190911790556080820151600490910155505060018054810190555050505050565b6000602052806000526040600020600091509050806000018054600181600116156101000203166002900480601f0160208091040260200160405190810160405280929190818152602001828054600181600116156101000203166002900480156107065780601f106106db57610100808354040283529160200191610706565b820191906000526020600020905b8154815290600101906020018083116106e957829003601f168201915b5050505060038301546004909301549192600160a060020a031691905083565b60206040519081016040526000815290565b60a06040519081016040528061074c610726565b8152602001610759610726565b8152602001610766610726565b815260006020820181905260409091015290565b828054600181600116156101000203166002900490600052602060002090601f016020900481019282601f106107bb57805160ff19168380011785556107e8565b828001600101855582156107e8579182015b828111156107e85782518255916020019190600101906107cd565b506107f49291506108a2565b5090565b82805482825590600052602060002090810192821561085c579160200282015b8281111561085c578251825473ffffffffffffffffffffffffffffffffffffffff1916600160a060020a039190911617825560209290920191600190910190610818565b506107f49291506108bf565b8280548282559060005260206000209081019282156107e857916020028201828111156107e85782518255916020019190600101906107cd565b6108bc91905b808211156107f457600081556001016108a8565b90565b6108bc91905b808211156107f457805473ffffffffffffffffffffffffffffffffffffffff191681556001016108c55600a165627a7a723058205957059f7026fc6aacfc770968125b04a4b0c5bef2016accebf0134b592cc0580029",
  "source": "pragma solidity ^0.4.21; // solhint-disable-line\n\n\ncontract TestNotification {\n\n    mapping (uint256 => AdditionalTokenData) public additionalData;\n    uint256 public counter = 0;\n\n    struct AdditionalTokenData {\n        string cid;\n        address[] beneficiaries;\n        uint256[] amounts;\n        address oracle;\n        uint256 minted;\n    }\n\n    function receiveNotification(string _cid,\n    address _oracle,\n    address _buyer,\n    address[] _beneficiaries,\n    uint256[] _amounts) public {\n        AdditionalTokenData memory aData;\n        aData.cid = _cid;\n        aData.beneficiaries = _beneficiaries;\n        aData.amounts = _amounts;\n        aData.oracle = _oracle;\n        aData.minted = now; //solhint-disable-line not-rely-on-time\n        additionalData[counter] = aData;\n        counter += 1; // every new token gets a new ID\n    }\n\n    function getCid(uint256 _tokenId) public view returns (string) {\n        return additionalData[_tokenId].cid;\n    }\n\n    function getBeneficiaries(uint256 _tokenId) public view returns (address[]) {\n        return additionalData[_tokenId].beneficiaries;\n    }\n\n    function getAmounts(uint256 _tokenId) public view returns (uint256[]) {\n        return additionalData[_tokenId].amounts;\n    }\n\n    function getOracle(uint256 _tokenId) public view returns(address) {\n        return additionalData[_tokenId].oracle;\n    }\n\n    function getMinted(uint256 _tokenId) public view returns(uint256) {\n        return additionalData[_tokenId].minted;\n    }\n}\n",
  "sourcePath": "/Users/alexander/Development/ujo.js/packages/contracts-licensing/contracts/TestNotification.sol",
  "compiler": {
    "name": "solc",
    "version": "0.4.21+commit.dfe3193c.Emscripten.clang"
  },
  "schemaVersion": "3.0.1",
  "updatedAt": "2019-02-04T20:25:24.713Z",
  "devdoc": {
    "methods": {}
  },
  "userdoc": {
    "methods": {}
  }
}