{
  "contractName": "TestHandler",
  "abi": [
    {
      "constant": true,
      "inputs": [],
      "name": "badges",
      "outputs": [
        {
          "name": "",
          "type": "address"
        }
      ],
      "payable": false,
      "stateMutability": "view",
      "type": "function"
    },
    {
      "inputs": [
        {
          "name": "_badges",
          "type": "address"
        }
      ],
      "payable": false,
      "stateMutability": "nonpayable",
      "type": "constructor"
    },
    {
      "constant": false,
      "inputs": [
        {
          "name": "_minter",
          "type": "address"
        }
      ],
      "name": "testSimplePayment",
      "outputs": [],
      "payable": false,
      "stateMutability": "nonpayable",
      "type": "function"
    },
    {
      "constant": false,
      "inputs": [
        {
          "name": "_cid",
          "type": "string"
        },
        {
          "name": "_oracle",
          "type": "address"
        },
        {
          "name": "_minter",
          "type": "address"
        },
        {
          "name": "_beneficiaries",
          "type": "address[]"
        },
        {
          "name": "_amounts",
          "type": "uint256[]"
        }
      ],
      "name": "testFullPayment",
      "outputs": [],
      "payable": false,
      "stateMutability": "nonpayable",
      "type": "function"
    }
  ],
  "bytecode": "0x608060405234801561001057600080fd5b506040516020806106cd83398101806040528101908080519060200190929190505050806000806101000a81548173ffffffffffffffffffffffffffffffffffffffff021916908373ffffffffffffffffffffffffffffffffffffffff1602179055505061064a806100836000396000f300608060405260043610610057576000357c0100000000000000000000000000000000000000000000000000000000900463ffffffff1680631a6462401461005c57806325e4e9bf146100b3578063a08d5b6f146101e2575b600080fd5b34801561006857600080fd5b50610071610225565b604051808273ffffffffffffffffffffffffffffffffffffffff1673ffffffffffffffffffffffffffffffffffffffff16815260200191505060405180910390f35b3480156100bf57600080fd5b506101e0600480360381019080803590602001908201803590602001908080601f0160208091040260200160405190810160405280939291908181526020018383808284378201915050505050509192919290803573ffffffffffffffffffffffffffffffffffffffff169060200190929190803573ffffffffffffffffffffffffffffffffffffffff169060200190929190803590602001908201803590602001908080602002602001604051908101604052809392919081815260200183836020028082843782019150505050505091929192908035906020019082018035906020019080806020026020016040519081016040528093929190818152602001838360200280828437820191505050505050919291929050505061024a565b005b3480156101ee57600080fd5b50610223600480360381019080803573ffffffffffffffffffffffffffffffffffffffff169060200190929190505050610458565b005b6000809054906101000a900473ffffffffffffffffffffffffffffffffffffffff1681565b6000809054906101000a900473ffffffffffffffffffffffffffffffffffffffff1673ffffffffffffffffffffffffffffffffffffffff16637dab14eb86868686866040518663ffffffff167c010000000000000000000000000000000000000000000000000000000002815260040180806020018673ffffffffffffffffffffffffffffffffffffffff1673ffffffffffffffffffffffffffffffffffffffff1681526020018573ffffffffffffffffffffffffffffffffffffffff1673ffffffffffffffffffffffffffffffffffffffff1681526020018060200180602001848103845289818151815260200191508051906020019080838360005b83811015610363578082015181840152602081019050610348565b50505050905090810190601f1680156103905780820380516001836020036101000a031916815260200191505b50848103835286818151815260200191508051906020019060200280838360005b838110156103cc5780820151818401526020810190506103b1565b50505050905001848103825285818151815260200191508051906020019060200280838360005b8381101561040e5780820151818401526020810190506103f3565b5050505090500198505050505050505050600060405180830381600087803b15801561043957600080fd5b505af115801561044d573d6000803e3d6000fd5b505050505050505050565b6060806000809054906101000a900473ffffffffffffffffffffffffffffffffffffffff1673ffffffffffffffffffffffffffffffffffffffff16637dab14eb60008584866040518563ffffffff167c010000000000000000000000000000000000000000000000000000000002815260040180806020018673ffffffffffffffffffffffffffffffffffffffff1681526020018573ffffffffffffffffffffffffffffffffffffffff1673ffffffffffffffffffffffffffffffffffffffff1681526020018060200180602001848103845260038152602001807f6369640000000000000000000000000000000000000000000000000000000000815250602001848103835286818151815260200191508051906020019060200280838360005b8381101561059557808201518184015260208101905061057a565b50505050905001848103825285818151815260200191508051906020019060200280838360005b838110156105d75780820151818401526020810190506105bc565b50505050905001975050505050505050600060405180830381600087803b15801561060157600080fd5b505af1158015610615573d6000803e3d6000fd5b505050505050505600a165627a7a72305820dca59b08c948791af01ff9a7b42b2f552882bcecb732162c86dd730b6265d9ba0029",
  "source": "pragma solidity ^0.4.21;\nimport \"./UjoAutoBadges.sol\"; // todo, change to interface.\n\n\ncontract TestHandler {\n\n    UjoAutoBadges public badges;\n\n    function TestHandler(address _badges) public {\n        badges = UjoAutoBadges(_badges);\n    }\n\n    function testSimplePayment(address _minter) public {\n        uint256[] memory amounts;\n        address[] memory beneficiaries;\n        badges.receiveNotification(\"cid\", 0, _minter, beneficiaries, amounts);\n    }\n\n    function testFullPayment(string _cid, address _oracle, address _minter, address[] _beneficiaries, uint256[] _amounts) public {\n        // (cid, oracle, buyer, addresses, amounts)\n        // general validation would usually be here before forwarding.\n        badges.receiveNotification(_cid, _oracle, _minter, _beneficiaries, _amounts);\n    }\n}\n",
  "sourcePath": "/Users/jpschwartz/Documents/ConsenSys/Ujo/ujo-js/ujo.js/packages/contracts/badges/contracts/TestHandler.sol",
  "compiler": {
    "name": "solc",
    "version": "0.4.24+commit.e67f0147.Emscripten.clang"
  },
  "schemaVersion": "2.0.1",
  "updatedAt": "2019-01-30T15:42:20.838Z"
}