{
  "contractName": "TestOracle",
  "abi": [
    {
      "constant": true,
      "inputs": [],
      "name": "price",
      "outputs": [
        {
          "name": "",
          "type": "uint256"
        }
      ],
      "payable": false,
      "stateMutability": "view",
      "type": "function",
      "signature": "0xa035b1fe"
    },
    {
      "constant": true,
      "inputs": [],
      "name": "lastUpdated",
      "outputs": [
        {
          "name": "",
          "type": "uint256"
        }
      ],
      "payable": false,
      "stateMutability": "view",
      "type": "function",
      "signature": "0xd0b06f5d"
    },
    {
      "inputs": [],
      "payable": false,
      "stateMutability": "nonpayable",
      "type": "constructor",
      "signature": "constructor"
    },
    {
      "constant": true,
      "inputs": [],
      "name": "getUintPrice",
      "outputs": [
        {
          "name": "",
          "type": "uint256"
        }
      ],
      "payable": false,
      "stateMutability": "view",
      "type": "function",
      "signature": "0x58836e9f"
    },
    {
      "constant": false,
      "inputs": [
        {
          "name": "_price",
          "type": "uint256"
        }
      ],
      "name": "setPrice",
      "outputs": [],
      "payable": false,
      "stateMutability": "nonpayable",
      "type": "function",
      "signature": "0x91b7f5ed"
    }
  ],
  "bytecode": "0x6080604052600160005534801561001557600080fd5b5042600155610118806100296000396000f3fe608060405260043610605c5763ffffffff7c010000000000000000000000000000000000000000000000000000000060003504166358836e9f8114606157806391b7f5ed146085578063a035b1fe1460ad578063d0b06f5d1460bf575b600080fd5b348015606c57600080fd5b50607360d1565b60408051918252519081900360200190f35b348015609057600080fd5b5060ab6004803603602081101560a557600080fd5b503560d7565b005b34801560b857600080fd5b50607360e0565b34801560ca57600080fd5b50607360e6565b60005490565b42600155600055565b60005481565b6001548156fea165627a7a723058201afce580b263fa973fc914a219624a179fa91576734f6ed7fdc637e351c456ca0029",
  "source": "/*\nUsed in testing to see if the Handler properly fetches it.\nRelies on getPrice() to return a string.\n*/\npragma solidity ^0.5.0;\n\n\ncontract TestOracle {\n    uint public price = 1; // 1 eth = 1 usd for simplicity of testing.\n    uint256 public lastUpdated;\n\n    constructor() public {\n        lastUpdated = now; // solhint-disable-line not-rely-on-time\n    }\n\n    function getUintPrice() public view returns (uint) {\n        return price;\n    }\n\n    function setPrice(uint _price) public {\n        lastUpdated = now; // solhint-disable-line not-rely-on-time\n        price = _price;\n    }\n}\n",
  "sourcePath": "/Users/alexander/Development/ujo.js/packages/contracts-oracle/contracts/TestOracle.sol",
  "compiler": {
    "name": "solc",
    "version": "0.5.0+commit.1d4f565a.Emscripten.clang"
  },
  "schemaVersion": "3.0.1",
  "updatedAt": "2019-02-04T20:25:41.957Z",
  "devdoc": {
    "methods": {}
  },
  "userdoc": {
    "methods": {}
  }
}