{
  "contractName": "TestLighthouse",
  "abi": [
    {
      "constant": true,
      "inputs": [],
      "name": "peekData",
      "outputs": [
        {
          "name": "v",
          "type": "uint128"
        },
        {
          "name": "b",
          "type": "bool"
        }
      ],
      "payable": false,
      "stateMutability": "view",
      "type": "function"
    }
  ],
  "bytecode": "0x608060405234801561001057600080fd5b5060b58061001f6000396000f3fe608060405260043610603e5763ffffffff7c0100000000000000000000000000000000000000000000000000000000600035041663420b81f681146043575b600080fd5b348015604e57600080fd5b5060556081565b604080516fffffffffffffffffffffffffffffffff909316835290151560208301528051918290030190f35b60796001909156fea165627a7a72305820801e35bc7d0a520e3db7e5776ffeb28fc2d675778647a67e5f0972f1c327d05b0029",
  "source": "pragma solidity ^0.5.0;\nimport \"./ILighthouse.sol\";\n\n//Simplified Interface for Rhombus Lighthouse Oracle\ncontract TestLighthouse {\n\n    function peekData() external view returns (uint128 v,bool b) {\n        return (121, true);\n    }\n}\n",
  "sourcePath": "/Users/jpschwartz/Documents/ConsenSys/Ujo/ujo-js/ujo.js/packages/contracts/oracle/contracts/TestLighthouse.sol",
  "compiler": {
    "name": "solc",
    "version": "0.5.0+commit.1d4f565a.Emscripten.clang"
  },
  "schemaVersion": "3.0.1",
  "updatedAt": "2019-01-31T20:42:43.509Z",
  "devdoc": {
    "methods": {}
  },
  "userdoc": {
    "methods": {}
  }
}