{
  "contractName": "USDETHOracle",
  "abi": [
    {
      "constant": true,
      "inputs": [],
      "name": "rhombusLighthouse",
      "outputs": [
        {
          "name": "",
          "type": "address"
        }
      ],
      "payable": false,
      "stateMutability": "view",
      "type": "function"
    },
    {
      "inputs": [
        {
          "name": "_rhombusLighthouse",
          "type": "address"
        }
      ],
      "payable": false,
      "stateMutability": "nonpayable",
      "type": "constructor"
    },
    {
      "constant": true,
      "inputs": [],
      "name": "getUintPrice",
      "outputs": [
        {
          "name": "",
          "type": "uint256"
        }
      ],
      "payable": false,
      "stateMutability": "view",
      "type": "function"
    }
  ],
  "bytecode": "0x608060405234801561001057600080fd5b5060405160208061020f8339810180604052602081101561003057600080fd5b505160008054600160a060020a03909216600160a060020a03199092169190911790556101ad806100626000396000f3fe60806040526004361061004b5763ffffffff7c010000000000000000000000000000000000000000000000000000000060003504166358836e9f8114610050578063c8fd299014610077575b600080fd5b34801561005c57600080fd5b506100656100b5565b60408051918252519081900360200190f35b34801561008357600080fd5b5061008c610165565b6040805173ffffffffffffffffffffffffffffffffffffffff9092168252519081900360200190f35b60008054604080517f420b81f600000000000000000000000000000000000000000000000000000000815281518493849373ffffffffffffffffffffffffffffffffffffffff9091169263420b81f69260048083019392829003018186803b15801561012057600080fd5b505afa158015610134573d6000803e3d6000fd5b505050506040513d604081101561014a57600080fd5b50516fffffffffffffffffffffffffffffffff169250505090565b60005473ffffffffffffffffffffffffffffffffffffffff168156fea165627a7a7230582004aec0f7ea5afdb464c4735afde23c18da36b1f8f7dc51cd0b665636714777040029",
  "source": "pragma solidity ^0.5.0;\nimport \"./ILighthouse.sol\";\n\n/*\nOraclize -> Rhombus:\nThis oracle was changed/morphed to using Rhombus over Oraclize.\nThe old API is getUintPrice(), thus this shim essentially just allows it keep the old API.\nIt adds some extra gas costs. If it gets too much, then the other contracts could be changed to use the Rhombus API instead.\n*/\ncontract USDETHOracle {\n\n    address public rhombusLighthouse;\n\n    constructor(address _rhombusLighthouse) public {\n        rhombusLighthouse = _rhombusLighthouse;\n    }\n\n    function getUintPrice() public view returns (uint) {\n        (uint128 price, bool notTooLongSinceUpdated) = ILighthouse(rhombusLighthouse).peekData();\n        return price;\n    }\n}\n",
  "sourcePath": "/Users/jpschwartz/Documents/ConsenSys/Ujo/ujo-js/ujo.js/packages/contracts/oracle/contracts/USDETHOracle.sol",
  "compiler": {
    "name": "solc",
    "version": "0.5.0+commit.1d4f565a.Emscripten.clang"
  },
  "schemaVersion": "3.0.1",
  "updatedAt": "2019-01-31T20:42:43.512Z",
  "devdoc": {
    "methods": {}
  },
  "userdoc": {
    "methods": {}
  }
}