{
  "contractName": "IUSDETHOracle",
  "abi": [
    {
      "constant": true,
      "inputs": [],
      "name": "url",
      "outputs": [
        {
          "name": "",
          "type": "string"
        }
      ],
      "payable": false,
      "stateMutability": "view",
      "type": "function"
    },
    {
      "constant": true,
      "inputs": [],
      "name": "ethUsdString",
      "outputs": [
        {
          "name": "",
          "type": "string"
        }
      ],
      "payable": false,
      "stateMutability": "view",
      "type": "function"
    },
    {
      "constant": true,
      "inputs": [],
      "name": "intervalInSeconds",
      "outputs": [
        {
          "name": "",
          "type": "uint256"
        }
      ],
      "payable": false,
      "stateMutability": "view",
      "type": "function"
    },
    {
      "constant": true,
      "inputs": [],
      "name": "lastUpdated",
      "outputs": [
        {
          "name": "",
          "type": "uint256"
        }
      ],
      "payable": false,
      "stateMutability": "view",
      "type": "function"
    },
    {
      "constant": true,
      "inputs": [],
      "name": "lock",
      "outputs": [
        {
          "name": "",
          "type": "bool"
        }
      ],
      "payable": false,
      "stateMutability": "view",
      "type": "function"
    },
    {
      "constant": true,
      "inputs": [],
      "name": "admin",
      "outputs": [
        {
          "name": "",
          "type": "address"
        }
      ],
      "payable": false,
      "stateMutability": "view",
      "type": "function"
    },
    {
      "constant": true,
      "inputs": [],
      "name": "getPrice",
      "outputs": [
        {
          "name": "",
          "type": "string"
        }
      ],
      "payable": false,
      "stateMutability": "view",
      "type": "function"
    },
    {
      "constant": true,
      "inputs": [],
      "name": "getUintPrice",
      "outputs": [
        {
          "name": "",
          "type": "uint256"
        }
      ],
      "payable": false,
      "stateMutability": "view",
      "type": "function"
    }
  ],
  "bytecode": "0x60806040526002805460a060020a60ff021916905534801561002057600080fd5b50610366806100306000396000f30060806040526004361061008d5763ffffffff7c01000000000000000000000000000000000000000000000000000000006000350416635600f04f811461009257806358836e9f1461011c5780635d1b00881461014357806364a1d7891461015857806398d5fdca1461016d578063d0b06f5d14610182578063f83d08ba14610197578063f851a440146101c0575b600080fd5b34801561009e57600080fd5b506100a76101fe565b6040805160208082528351818301528351919283929083019185019080838360005b838110156100e15781810151838201526020016100c9565b50505050905090810190601f16801561010e5780820380516001836020036101000a031916815260200191505b509250505060405180910390f35b34801561012857600080fd5b5061013161028c565b60408051918252519081900360200190f35b34801561014f57600080fd5b506100a7610291565b34801561016457600080fd5b506101316102ec565b34801561017957600080fd5b506100a76102f2565b34801561018e57600080fd5b506101316102f7565b3480156101a357600080fd5b506101ac6102fd565b604080519115158252519081900360200190f35b3480156101cc57600080fd5b506101d561031e565b6040805173ffffffffffffffffffffffffffffffffffffffff9092168252519081900360200190f35b6004805460408051602060026001851615610100026000190190941693909304601f810184900484028201840190925281815292918301828280156102845780601f1061025957610100808354040283529160200191610284565b820191906000526020600020905b81548152906001019060200180831161026757829003601f168201915b505050505081565b600090565b6000805460408051602060026001851615610100026000190190941693909304601f810184900484028201840190925281815292918301828280156102845780601f1061025957610100808354040283529160200191610284565b60035481565b606090565b60015481565b60025474010000000000000000000000000000000000000000900460ff1681565b60025473ffffffffffffffffffffffffffffffffffffffff16815600a165627a7a7230582095f8939dcfe68f46da26d217d6abdbc97fc4787ce7f6d8790adffa868080be0e0029",
  "source": "pragma solidity ^0.4.23;\n\n\n// Interface for the Oracle\ncontract IUSDETHOracle {\n\n    string public ethUsdString;\n    uint public lastUpdated;\n\n    address public admin;\n    bool public lock = false;\n    uint256 public intervalInSeconds;\n    string public url;\n\n    // solhint-disable no-empty-blocks\n    function getPrice() public constant returns (string) {}\n\n    function getUintPrice() public constant returns (uint) { }\n    // solhint-enable\n}\n",
  "sourcePath": "/Users/alexander/Development/ujo.js/packages/contracts-badges/contracts/IUSDETHOracle.sol",
  "compiler": {
    "name": "solc",
    "version": "0.4.24+commit.e67f0147.Emscripten.clang"
  },
  "schemaVersion": "3.0.1",
  "updatedAt": "2019-02-04T20:25:10.395Z",
  "devdoc": {
    "methods": {}
  },
  "userdoc": {
    "methods": {}
  }
}