{
  "contractName": "ProxyState",
  "abi": [
    {
      "constant": true,
      "inputs": [],
      "name": "owner",
      "outputs": [
        {
          "name": "",
          "type": "address"
        }
      ],
      "payable": false,
      "stateMutability": "view",
      "type": "function"
    }
  ],
  "bytecode": "0x608060405234801561001057600080fd5b5060c68061001f6000396000f300608060405260043610603e5763ffffffff7c01000000000000000000000000000000000000000000000000000000006000350416638da5cb5b81146043575b600080fd5b348015604e57600080fd5b506055607e565b6040805173ffffffffffffffffffffffffffffffffffffffff9092168252519081900360200190f35b60005473ffffffffffffffffffffffffffffffffffffffff16815600a165627a7a72305820e8a1643f504a0c901a18e6eeb58b660f948067de7b8bcb02d4d35fd8476d7c2a0029",
  "source": "pragma solidity ^0.4.24;\nimport \"./utils/SafeMath.sol\";\nimport \"./utils/strings.sol\";\nimport \"./IUSDETHOracle.sol\";\nimport \"./eip721/EIP721.sol\";\n\n\ncontract ProxyState {\n\n    address public owner;\n    address internal delegate;\n\n    /* NOTE:\n    - A brief explanation on how this works and why this is necessary.\n    - Storage is allocated sequentially in Solidity.\n    - Variables names essentially map to a position in storage.\n    - In using delegatecall, it executes the code in the context of the calling contract.\n    - Thus, it will be dereferenced to point to some storage slot based on its position of declaration.\n    - So, if the calling contract has a variable \"owner\" and the and the called contract\n    also has a variable \"owner\", it doesn't mean it will point to the same storage slot.\n    - It will only point to the same storage slot IF, and only IF, the variable \"owner\"\n    was declared in the same position.\n    - In this case, the proxy itself has two allocated storage slots: 1) owner & 2) delegate.\n    - Thus, any contract that is delegatecalled should ONLY be referencing storage *after*\n    the first two declarations.\n    - If you want to use the variables in the proxy's state, the variable declarations doesn't\n    have to be the same, but it helps to read better if they are.\n    - Order matters.\n    - Thus, reading the functions contract: it is proxy vars, then EIP721 vars, then its own.\n    - When the called contract is executed, then it will execute on the calling contract state.\n    - This contract can be interacted on its without being delegated towards, writing to its own storage.\n    - Nothing about writing to its own storage is detrimental to the function of the proxy [unlikely\n    the Parity Wallet hack where the contract could self-destruct].\n    */\n}\n\n\ncontract UjoPatronageBadgesFunctions is ProxyState, EIP721 {\n    using SafeMath for uint256;\n    using strings for *;\n\n    string public tokenURIBase;\n    string public tokenURISuffix;\n    mapping (uint256 => string) public tokenURIIDs;\n\n    uint256 public totalMinted = 0;\n\n    IUSDETHOracle public oracle;\n\n    bool internal setup = false;\n\n    modifier onlyProxyOwner() {\n        require(msg.sender == owner);\n        _;\n    }\n\n    event LogBadgeMinted(uint256 indexed tokenId, string nftcid, uint256 timeMinted, address buyer, address issuer);\n    event LogPaymentProcessed(uint256 indexed tokenId, address[] beneficiaries, uint256[] splits, uint256 usdCostOfBadge);\n\n    // overload inherited tokenURI\n    function tokenURI(uint256 _tokenId) external view returns (string) {\n        return tokenURIBase.toSlice().concat(tokenURIIDs[_tokenId].toSlice()).toSlice().concat(tokenURISuffix.toSlice());\n    }\n\n    function setupBadges(address _initialiseBadges, address _initialOracle) public onlyProxyOwner {\n        require(!setup);\n        name = \"Patronage Badges\";\n        symbol = \"PATRON\";\n        tokenURIBase = \"https://ipfs.infura.io:5001/api/v0/dag/get?arg=\";\n        tokenURISuffix = \"\";\n        oracle = IUSDETHOracle(_initialOracle);\n        // this issues a delegatecall in case there needs to be an initial setup the badges.\n        // eg, creating 100 initial badges for example.\n        _initialiseBadges.delegatecall(abi.encodeWithSignature(\"initialise()\")); // solhint-disable-line avoid-low-level-calls\n        setup = true;\n    }\n\n    // additional helper function not in EIP721.\n    function getAllTokens(address _owner) public view returns (uint256[]) {\n        uint size = ownedTokens[_owner].length;\n        uint[] memory result = new uint256[](size);\n        for (uint i = 0; i < size; i++) {\n            result[i] = ownedTokens[_owner][i];\n        }\n        return result;\n    }\n    /* function testGetDelegate() public view returns(address) {\n        return delegate;\n    } */\n\n    function setOracle(address _oracle) public onlyProxyOwner {\n        oracle = IUSDETHOracle(_oracle);\n    }\n\n    // URI is the CID\n    // solhint-disable-next-line func-param-name-mixedcase\n    function setTokenURIID(uint256 _tokenID, string _newID) public onlyProxyOwner tokenExists(_tokenID) {\n        tokenURIIDs[_tokenID] = _newID;\n    }\n\n    function setTokenURIBase(string _newURIBase) public onlyProxyOwner {\n        tokenURIBase = _newURIBase;\n    }\n\n    function setTokenURISuffix(string _newURISuffix) public onlyProxyOwner {\n        tokenURISuffix = _newURISuffix;\n    }\n\n    /* in the unlikely event that a badge needs to be minted but not paid for */\n    function adminMintWithoutPayment(address _buyer, string _nftCid, address[] _beneficiaries, uint256[] _splits, uint256 _usdCost) public onlyProxyOwner returns (uint256 tokenId) {\n        tokenId = createBadge(_buyer, _nftCid);\n\n        // there's no payment, but log as if it occurred.\n        emit LogPaymentProcessed(tokenId, _beneficiaries, _splits, _usdCost);\n    }\n\n    function mint(address _buyer, string _nftCid, address[] _beneficiaries, uint256[] _splits, uint256 _usdCost) public payable returns (uint256 tokenId) {\n        tokenId = createBadge(_buyer, _nftCid);\n        processETHPayment(tokenId, _beneficiaries, _splits, _usdCost);\n        // note: tokenId is automatically returned due to naming.\n    }\n\n    function burnToken(uint256 _tokenId) public allowedToOperate(_tokenId) {\n        removeToken(msg.sender, _tokenId);\n        emit Transfer(msg.sender, 0, _tokenId);\n    }\n\n    /* internal functions */\n    function processETHPayment(uint256 _tokenId, address[] _beneficiaries, uint256[] _splits, uint256 _usdCost) internal {\n        uint256 exchangeRate = oracle.getUintPrice();\n\n        require(exchangeRate > 0);\n        require(_usdCost > 0);\n\n        // note: division is not done with SafeMath because 1 ether in Solidity is int_const\n        // also: divs impossible to over/underflow\n        uint256 totalWei = (1 ether / exchangeRate).mul(_usdCost);\n        require(msg.value >= totalWei);\n\n        //  Send back remainder.\n        if (msg.value > totalWei) {\n            msg.sender.transfer(msg.value - totalWei);\n        }\n\n        // transfer funds\n        if (_beneficiaries.length > 1) {\n            processETHMultiplePayments(_beneficiaries, _splits, totalWei);\n        } else {\n            proccessETHSinglePayment(_beneficiaries[0], totalWei);\n        }\n\n        emit LogPaymentProcessed(_tokenId, _beneficiaries, _splits, _usdCost);\n    }\n\n    function proccessETHSinglePayment(address _beneficiary, uint256 _totalWei) internal {\n        _beneficiary.transfer(_totalWei);\n    }\n\n    function processETHMultiplePayments(address[] _beneficiaries, uint256[] _splits, uint256 _totalWei) internal {\n        require(_beneficiaries.length == _splits.length);\n\n        // note: allowing a split to be zero.\n\n        uint256 totalSplits = 0;\n        for (uint256 i = 0; i < _beneficiaries.length; i += 1) {\n            _beneficiaries[i].transfer(_splits[i].mul(_totalWei).div(100));\n            totalSplits = totalSplits.add(_splits[i]);\n        }\n\n        require(totalSplits == 100);\n    }\n\n    function createBadge(address _buyer, string _nftCid) internal returns (uint256) {\n        totalMinted = totalMinted.add(1); // basically impossible to overflow, but still keeping SafeMath.\n        uint256 tokenId = totalMinted; // start IDs at 1, since returning 0 could be confusing.\n        tokenURIIDs[tokenId] = _nftCid;\n\n        addToken(_buyer, tokenId);\n        emit LogBadgeMinted(tokenId, _nftCid, now, _buyer, msg.sender); // solhint-disable-line not-rely-on-time\n        return tokenId;\n    }\n}\n",
  "sourcePath": "/Users/alexander/Development/ujo.js/packages/contracts-badges/contracts/UjoPatronageBadgesFunctions.sol",
  "compiler": {
    "name": "solc",
    "version": "0.4.24+commit.e67f0147.Emscripten.clang"
  },
  "schemaVersion": "3.0.1",
  "updatedAt": "2019-02-04T20:25:10.410Z",
  "devdoc": {
    "methods": {}
  },
  "userdoc": {
    "methods": {}
  }
}