{
  "contractName": "TestInitialise",
  "abi": [
    {
      "constant": false,
      "inputs": [],
      "name": "initialise",
      "outputs": [],
      "payable": false,
      "stateMutability": "nonpayable",
      "type": "function"
    }
  ],
  "bytecode": "0x608060405234801561001057600080fd5b5061230e806100206000396000f3006080604052600436106100405763ffffffff7c0100000000000000000000000000000000000000000000000000000000600035041663592e6f598114610045575b600080fd5b34801561005157600080fd5b5061005a61005c565b005b60408051600180825281830190925260609182919060208083019080388339505060408051600180825281830190925292945090506020808301908038833901905050905060648160008151811015156100b257fe5b60209081029091010152815173804a981c929c133cfc95e0094495325f5d84fdd390839060009081106100e157fe5b600160a060020a03909216602092830290910182015260405173aaa8a090e78724c8e3f3de407205fff16001756860248201818152600560a4840181905260a060448501908152603160c48601527f7a64707541725371724172354b6732797871477a793168466e67456d5a59484160e48601527f5331764d7776556b68646e5637646e7a6e0000000000000000000000000000006101048601526101006064860190815288516101248701528851309795968a968a9694939260848301926101440191898101910280838360005b838110156101c85781810151838201526020016101b0565b50505050905001848103825286818151815260200191508051906020019060200280838360005b838110156102075781810151838201526020016101ef565b5050505090500197505050505050505060405160208183030381529060405260e160020a6363ce5a5f02600160e060020a031916602082018051600160e060020a03838183161783525050505060405180828051906020019080838360005b8381101561027e578181015183820152602001610266565b50505050905090810190601f1680156102ab5780820380516001836020036101000a031916815260200191505b50915050600060405180830381855af49150505073d1c2388c9b40a1c1d4340924b8cc8dc9876499b48260008151811015156102e357fe5b600160a060020a03909216602092830290910182015260405173aaa8a090e78724c8e3f3de407205fff16001756860248201818152600560a4840181905260a060448501908152603160c48601527f7a64707541746959553978515a7973637a576a5838436b64444178346148556760e48601527f547956574a4252686537646a774a6a52470000000000000000000000000000006101048601526101006064860190815288516101248701528851309795968a968a9694939260848301926101440191898101910280838360005b838110156103ca5781810151838201526020016103b2565b50505050905001848103825286818151815260200191508051906020019060200280838360005b838110156104095781810151838201526020016103f1565b5050505090500197505050505050505060405160208183030381529060405260e160020a6363ce5a5f02600160e060020a031916602082018051600160e060020a03838183161783525050505060405180828051906020019080838360005b83811015610480578181015183820152602001610468565b50505050905090810190601f1680156104ad5780820380516001836020036101000a031916815260200191505b50915050600060405180830381855af4915050507366be39d22b9e7177096db4c96aee4106e44d49108260008151811015156104e557fe5b600160a060020a03909216602092830290910182015260405173aaa8a090e78724c8e3f3de407205fff16001756860248201818152600560a4840181905260a060448501908152603160c48601527f7a647075423145616f754856344d795270764577773772594378507774465a5560e48601527f5967767a327970424867534a46794d64560000000000000000000000000000006101048601526101006064860190815288516101248701528851309795968a968a9694939260848301926101440191898101910280838360005b838110156105cc5781810151838201526020016105b4565b50505050905001848103825286818151815260200191508051906020019060200280838360005b8381101561060b5781810151838201526020016105f3565b5050505090500197505050505050505060405160208183030381529060405260e160020a6363ce5a5f02600160e060020a031916602082018051600160e060020a03838183161783525050505060405180828051906020019080838360005b8381101561068257818101518382015260200161066a565b50505050905090810190601f1680156106af5780820380516001836020036101000a031916815260200191505b50915050600060405180830381855af491505050736c0a787bbab04f9882e88add5bdf5d04c9aa650a8260008151811015156106e757fe5b600160a060020a039092166020928302909101820152604051736c0a787bbab04f9882e88add5bdf5d04c9aa650a60248201818152600560a4840181905260a060448501908152603160c48601527f7a647075417336384771337457673831426d66314a3162385743675444744a7060e48601527f56597156344276776f4d573652525546380000000000000000000000000000006101048601526101006064860190815288516101248701528851309795968a968a9694939260848301926101440191898101910280838360005b838110156107ce5781810151838201526020016107b6565b50505050905001848103825286818151815260200191508051906020019060200280838360005b8381101561080d5781810151838201526020016107f5565b5050505090500197505050505050505060405160208183030381529060405260e160020a6363ce5a5f02600160e060020a031916602082018051600160e060020a03838183161783525050505060405180828051906020019080838360005b8381101561088457818101518382015260200161086c565b50505050905090810190601f1680156108b15780820380516001836020036101000a031916815260200191505b50915050600060405180830381855af4915050507376bc4c780dd85558bc4b24a4f262f4eb0be78ca78260008151811015156108e957fe5b600160a060020a039092166020928302909101820152604051739fd5cc5e68796f08edc54e738585227ad2b6c03f60248201818152600560a4840181905260a060448501908152603160c48601527f7a6470754232324e77413966655571426f437268576e447a4e7539725071547260e48601527f446f6b705970384c5641716176684a4d790000000000000000000000000000006101048601526101006064860190815288516101248701528851309795968a968a9694939260848301926101440191898101910280838360005b838110156109d05781810151838201526020016109b8565b50505050905001848103825286818151815260200191508051906020019060200280838360005b83811015610a0f5781810151838201526020016109f7565b5050505090500197505050505050505060405160208183030381529060405260e160020a6363ce5a5f02600160e060020a031916602082018051600160e060020a03838183161783525050505060405180828051906020019080838360005b83811015610a86578181015183820152602001610a6e565b50505050905090810190601f168015610ab35780820380516001836020036101000a031916815260200191505b50915050600060405180830381855af491505050732abfe45394df8dcea4bc8006bab2cc5a850a9305826000815181101515610aeb57fe5b600160a060020a039092166020928302909101820152604051731318d3420b0169522eb8f3ef0830acee700a2eda60248201818152600560a4840181905260a060448501908152603160c48601527f7a6470754176694d61595946544269573534544c5631316839336d423174784660e48601527f367a63636f4635664b7075396e737562380000000000000000000000000000006101048601526101006064860190815288516101248701528851309795968a968a9694939260848301926101440191898101910280838360005b83811015610bd2578181015183820152602001610bba565b50505050905001848103825286818151815260200191508051906020019060200280838360005b83811015610c11578181015183820152602001610bf9565b5050505090500197505050505050505060405160208183030381529060405260e160020a6363ce5a5f02600160e060020a031916602082018051600160e060020a03838183161783525050505060405180828051906020019080838360005b83811015610c88578181015183820152602001610c70565b50505050905090810190601f168015610cb55780820380516001836020036101000a031916815260200191505b50915050600060405180830381855af491505050732abfe45394df8dcea4bc8006bab2cc5a850a9305826000815181101515610ced57fe5b600160a060020a0390921660209283029091018201526040517307a93218f692e18dd77d693d84568a5042df667b60248201818152600560a4840181905260a060448501908152603160c48601527f7a6470754176694d61595946544269573534544c5631316839336d423174784660e48601527f367a63636f4635664b7075396e737562380000000000000000000000000000006101048601526101006064860190815288516101248701528851309795968a968a9694939260848301926101440191898101910280838360005b83811015610dd4578181015183820152602001610dbc565b50505050905001848103825286818151815260200191508051906020019060200280838360005b83811015610e13578181015183820152602001610dfb565b5050505090500197505050505050505060405160208183030381529060405260e160020a6363ce5a5f02600160e060020a031916602082018051600160e060020a03838183161783525050505060405180828051906020019080838360005b83811015610e8a578181015183820152602001610e72565b50505050905090810190601f168015610eb75780820380516001836020036101000a031916815260200191505b50915050600060405180830381855af491505050731875e398cd7fdce8ff5c9d4ce1ec904cae51692c826000815181101515610eef57fe5b600160a060020a039092166020928302909101820152604051739e56625509c2f60af937f23b7b532600390e8c8b60248201818152600560a4840181905260a060448501908152603160c48601527f7a6470754174525a54486d6f73347a71666a6b4a377a7837313274673275487a60e48601527f4b467447687a72535148617a5958506b680000000000000000000000000000006101048601526101006064860190815288516101248701528851309795968a968a9694939260848301926101440191898101910280838360005b83811015610fd6578181015183820152602001610fbe565b50505050905001848103825286818151815260200191508051906020019060200280838360005b83811015611015578181015183820152602001610ffd565b5050505090500197505050505050505060405160208183030381529060405260e160020a6363ce5a5f02600160e060020a031916602082018051600160e060020a03838183161783525050505060405180828051906020019080838360005b8381101561108c578181015183820152602001611074565b50505050905090810190601f1680156110b95780820380516001836020036101000a031916815260200191505b50915050600060405180830381855af49150505073edd17db41ee47b8794b10802ac05806a66f3ab368260008151811015156110f157fe5b600160a060020a03909216602092830290910182015260405173374bd185ee19fd9f8682eb875e5d0546a8d58cdd60248201818152600560a4840181905260a060448501908152603160c48601527f7a64707541756472756b64327a356d56503731424c4d775a316b643964756e4c60e48601527f767a73434d536859313151396e6a4772480000000000000000000000000000006101048601526101006064860190815288516101248701528851309795968a968a9694939260848301926101440191898101910280838360005b838110156111d85781810151838201526020016111c0565b50505050905001848103825286818151815260200191508051906020019060200280838360005b838110156112175781810151838201526020016111ff565b5050505090500197505050505050505060405160208183030381529060405260e160020a6363ce5a5f02600160e060020a031916602082018051600160e060020a03838183161783525050505060405180828051906020019080838360005b8381101561128e578181015183820152602001611276565b50505050905090810190601f1680156112bb5780820380516001836020036101000a031916815260200191505b50915050600060405180830381855af4915050507384aa1925a0afb812ec4373e321e0b9b82f64574d8260008151811015156112f357fe5b600160a060020a03909216602092830290910182015260405173258ddd84abf61ba1d1e39f95d8863ee9ca218c0660248201818152600560a4840181905260a060448501908152603160c48601527f7a64707542314a467a41587338626f33336b766a554c744d6444424c3732597060e48601527f33575433794b784a6b6a536b596a6455310000000000000000000000000000006101048601526101006064860190815288516101248701528851309795968a968a9694939260848301926101440191898101910280838360005b838110156113da5781810151838201526020016113c2565b50505050905001848103825286818151815260200191508051906020019060200280838360005b83811015611419578181015183820152602001611401565b5050505090500197505050505050505060405160208183030381529060405260e160020a6363ce5a5f02600160e060020a031916602082018051600160e060020a03838183161783525050505060405180828051906020019080838360005b83811015611490578181015183820152602001611478565b50505050905090810190601f1680156114bd5780820380516001836020036101000a031916815260200191505b50915050600060405180830381855af491505050736e4125dd92515aa29efd24c8bbf09d17dd92f74b8260008151811015156114f557fe5b600160a060020a03909216602092830290910182015260405173d797d5784f43de300ec0d6bc34fc86023c5d71ce60248201818152600560a4840181905260a060448501908152603160c48601527f7a647075417a38476f38437036776651666b7a4e4769537a7234613352446b3160e48601527f43626e36437661545752706645586362470000000000000000000000000000006101048601526101006064860190815288516101248701528851309795968a968a9694939260848301926101440191898101910280838360005b838110156115dc5781810151838201526020016115c4565b50505050905001848103825286818151815260200191508051906020019060200280838360005b8381101561161b578181015183820152602001611603565b5050505090500197505050505050505060405160208183030381529060405260e160020a6363ce5a5f02600160e060020a031916602082018051600160e060020a03838183161783525050505060405180828051906020019080838360005b8381101561169257818101518382015260200161167a565b50505050905090810190601f1680156116bf5780820380516001836020036101000a031916815260200191505b50915050600060405180830381855af4915050507384aa1925a0afb812ec4373e321e0b9b82f64574d8260008151811015156116f757fe5b600160a060020a03909216602092830290910182015260405173374bd185ee19fd9f8682eb875e5d0546a8d58cdd60248201818152600560a4840181905260a060448501908152603160c48601527f7a64707542314a467a41587338626f33336b766a554c744d6444424c3732597060e48601527f33575433794b784a6b6a536b596a6455310000000000000000000000000000006101048601526101006064860190815288516101248701528851309795968a968a9694939260848301926101440191898101910280838360005b838110156117de5781810151838201526020016117c6565b50505050905001848103825286818151815260200191508051906020019060200280838360005b8381101561181d578181015183820152602001611805565b5050505090500197505050505050505060405160208183030381529060405260e160020a6363ce5a5f02600160e060020a031916602082018051600160e060020a03838183161783525050505060405180828051906020019080838360005b8381101561189457818101518382015260200161187c565b50505050905090810190601f1680156118c15780820380516001836020036101000a031916815260200191505b50915050600060405180830381855af49150505073374bd185ee19fd9f8682eb875e5d0546a8d58cdd8260008151811015156118f957fe5b600160a060020a039092166020928302909101820152604051733ece8d40dac89ffb408f7cb5eaf24ab6a313502860248201818152600560a4840181905260a060448501908152603160c48601527f7a64707541734d58514666664c5a4554774b3248627547664147524b3154795660e48601527f514e4c507a4668736843797236385546580000000000000000000000000000006101048601526101006064860190815288516101248701528851309795968a968a9694939260848301926101440191898101910280838360005b838110156119e05781810151838201526020016119c8565b50505050905001848103825286818151815260200191508051906020019060200280838360005b83811015611a1f578181015183820152602001611a07565b5050505090500197505050505050505060405160208183030381529060405260e160020a6363ce5a5f02600160e060020a031916602082018051600160e060020a03838183161783525050505060405180828051906020019080838360005b83811015611a96578181015183820152602001611a7e565b50505050905090810190601f168015611ac35780820380516001836020036101000a031916815260200191505b50915050600060405180830381855af49150505073374bd185ee19fd9f8682eb875e5d0546a8d58cdd826000815181101515611afb57fe5b600160a060020a039092166020928302909101820152604051732a3f7e5170ea8ca967f85f091ef84591f639e03160248201818152600560a4840181905260a060448501908152603160c48601527f7a64707541734d58514666664c5a4554774b3248627547664147524b3154795660e48601527f514e4c507a4668736843797236385546580000000000000000000000000000006101048601526101006064860190815288516101248701528851309795968a968a9694939260848301926101440191898101910280838360005b83811015611be2578181015183820152602001611bca565b50505050905001848103825286818151815260200191508051906020019060200280838360005b83811015611c21578181015183820152602001611c09565b5050505090500197505050505050505060405160208183030381529060405260e160020a6363ce5a5f02600160e060020a031916602082018051600160e060020a03838183161783525050505060405180828051906020019080838360005b83811015611c98578181015183820152602001611c80565b50505050905090810190601f168015611cc55780820380516001836020036101000a031916815260200191505b50915050600060405180830381855af4915050507335a7e40871a621d138e6e7e565ea23b90e333494826000815181101515611cfd57fe5b600160a060020a0390921660209283029091018201526040517335a7e40871a621d138e6e7e565ea23b90e33349460248201818152600560a4840181905260a060448501908152603160c48601527f7a64707541756452414c4a74483466646a63737a58697275797769767676317660e48601527f7a48684a547077476d675055746957757a0000000000000000000000000000006101048601526101006064860190815288516101248701528851309795968a968a9694939260848301926101440191898101910280838360005b83811015611de4578181015183820152602001611dcc565b50505050905001848103825286818151815260200191508051906020019060200280838360005b83811015611e23578181015183820152602001611e0b565b5050505090500197505050505050505060405160208183030381529060405260e160020a6363ce5a5f02600160e060020a031916602082018051600160e060020a03838183161783525050505060405180828051906020019080838360005b83811015611e9a578181015183820152602001611e82565b50505050905090810190601f168015611ec75780820380516001836020036101000a031916815260200191505b50915050600060405180830381855af49150505073c8f4652cdbe54ee3a048b58ffc59b72e4298fc84826000815181101515611eff57fe5b600160a060020a03909216602092830290910182015260405173374bd185ee19fd9f8682eb875e5d0546a8d58cdd60248201818152600560a4840181905260a060448501908152603160c48601527f7a6470754232437254425748416a537754546e4c5a514870395873423971676160e48601527f3541315868746545345741676a754c35780000000000000000000000000000006101048601526101006064860190815288516101248701528851309795968a968a9694939260848301926101440191898101910280838360005b83811015611fe6578181015183820152602001611fce565b50505050905001848103825286818151815260200191508051906020019060200280838360005b8381101561202557818101518382015260200161200d565b5050505090500197505050505050505060405160208183030381529060405260e160020a6363ce5a5f02600160e060020a031916602082018051600160e060020a03838183161783525050505060405180828051906020019080838360005b8381101561209c578181015183820152602001612084565b50505050905090810190601f1680156120c95780820380516001836020036101000a031916815260200191505b50915050600060405180830381855af491505050731875e398cd7fdce8ff5c9d4ce1ec904cae51692c82600081518110151561210157fe5b600160a060020a03909216602092830290910182015260405173374bd185ee19fd9f8682eb875e5d0546a8d58cdd60248201818152600560a4840181905260a060448501908152603160c48601527f7a6470754174525a54486d6f73347a71666a6b4a377a7837313274673275487a60e48601527f4b467447687a72535148617a5958506b680000000000000000000000000000006101048601526101006064860190815288516101248701528851309795968a968a9694939260848301926101440191898101910280838360005b838110156121e85781810151838201526020016121d0565b50505050905001848103825286818151815260200191508051906020019060200280838360005b8381101561222757818101518382015260200161220f565b5050505090500197505050505050505060405160208183030381529060405260e160020a6363ce5a5f02600160e060020a031916602082018051600160e060020a03838183161783525050505060405180828051906020019080838360005b8381101561229e578181015183820152602001612286565b50505050905090810190601f1680156122cb5780820380516001836020036101000a031916815260200191505b50915050600060405180830381855af450505050505600a165627a7a723058201adc2498718295b7cf1fff9cbf9eef1f5da211bbf79fb8ca57249bd9b0f24dce0029",
  "source": "pragma solidity ^0.4.24;\n\n// solhint-disable\ncontract TestInitialise {\n    function initialise() public {\n      address[] memory beneficiaries = new address[](1);\n      uint256[] memory splits = new uint256[](1);\n      splits[0] = 100;\n      // function adminMintWithoutPayment(address _buyer, string _nftCid, address[] _beneficiaries, uint256[] _splits, uint256 _usdCost)\n      beneficiaries[0] = address(0x804A981c929C133cfC95e0094495325F5D84Fdd3);address(this).delegatecall(abi.encodeWithSignature(\"adminMintWithoutPayment(address,string,address[],uint256[],uint256)\", 0xAAA8a090E78724c8E3f3dE407205fff160017568, \"zdpuArSqrAr5Kg2yxqGzy1hFngEmZYHAS1vMwvUkhdnV7dnzn\", beneficiaries, splits, 5));\n      beneficiaries[0] = address(0xd1C2388c9B40a1c1D4340924b8cc8dC9876499b4);address(this).delegatecall(abi.encodeWithSignature(\"adminMintWithoutPayment(address,string,address[],uint256[],uint256)\", 0xAAA8a090E78724c8E3f3dE407205fff160017568, \"zdpuAtiYU9xQZysczWjX8CkdDAx4aHUgTyVWJBRhe7djwJjRG\", beneficiaries, splits, 5));\n      beneficiaries[0] = address(0x66bE39D22b9E7177096Db4C96aeE4106E44D4910);address(this).delegatecall(abi.encodeWithSignature(\"adminMintWithoutPayment(address,string,address[],uint256[],uint256)\", 0xAAA8a090E78724c8E3f3dE407205fff160017568, \"zdpuB1EaouHV4MyRpvEww7rYCxPwtFZUYgvz2ypBHgSJFyMdV\", beneficiaries, splits, 5));\n      beneficiaries[0] = address(0x6c0a787BBAB04F9882e88adD5bdF5d04C9aa650A);address(this).delegatecall(abi.encodeWithSignature(\"adminMintWithoutPayment(address,string,address[],uint256[],uint256)\", 0x6c0a787BBAB04F9882e88adD5bdF5d04C9aa650A, \"zdpuAs68Gq3tWg81Bmf1J1b8WCgTDtJpVYqV4BvwoMW6RRUF8\", beneficiaries, splits, 5));\n      beneficiaries[0] = address(0x76bc4C780Dd85558Bc4B24a4f262f4eB0bE78ca7);address(this).delegatecall(abi.encodeWithSignature(\"adminMintWithoutPayment(address,string,address[],uint256[],uint256)\", 0x9Fd5cc5E68796f08EDC54e738585227AD2B6c03F, \"zdpuB22NwA9feUqBoCrhWnDzNu9rPqTrDokpYp8LVAqavhJMy\", beneficiaries, splits, 5));\n      beneficiaries[0] = address(0x2ABfE45394Df8dCEA4BC8006bab2cc5A850a9305);address(this).delegatecall(abi.encodeWithSignature(\"adminMintWithoutPayment(address,string,address[],uint256[],uint256)\", 0x1318d3420b0169522eB8F3EF0830aceE700A2eda, \"zdpuAviMaYYFTBiW54TLV11h93mB1txF6zccoF5fKpu9nsub8\", beneficiaries, splits, 5));\n      beneficiaries[0] = address(0x2ABfE45394Df8dCEA4BC8006bab2cc5A850a9305);address(this).delegatecall(abi.encodeWithSignature(\"adminMintWithoutPayment(address,string,address[],uint256[],uint256)\", 0x07A93218F692e18Dd77D693D84568A5042df667b, \"zdpuAviMaYYFTBiW54TLV11h93mB1txF6zccoF5fKpu9nsub8\", beneficiaries, splits, 5));\n      beneficiaries[0] = address(0x1875e398cD7FdcE8fF5C9d4ce1Ec904caE51692c);address(this).delegatecall(abi.encodeWithSignature(\"adminMintWithoutPayment(address,string,address[],uint256[],uint256)\", 0x9e56625509c2F60aF937F23B7b532600390e8C8B, \"zdpuAtRZTHmos4zqfjkJ7zx712tg2uHzKFtGhzrSQHazYXPkh\", beneficiaries, splits, 5));\n      beneficiaries[0] = address(0xeDD17DB41eE47B8794b10802aC05806a66f3ab36);address(this).delegatecall(abi.encodeWithSignature(\"adminMintWithoutPayment(address,string,address[],uint256[],uint256)\", 0x374Bd185Ee19fD9f8682Eb875E5D0546A8D58CdD, \"zdpuAudrukd2z5mVP71BLMwZ1kd9dunLvzsCMShY11Q9njGrH\", beneficiaries, splits, 5));\n      beneficiaries[0] = address(0x84Aa1925A0AfB812Ec4373E321E0b9B82f64574d);address(this).delegatecall(abi.encodeWithSignature(\"adminMintWithoutPayment(address,string,address[],uint256[],uint256)\", 0x258DDD84abf61ba1D1E39f95D8863ee9ca218c06, \"zdpuB1JFzAXs8bo33kvjULtMdDBL72Yp3WT3yKxJkjSkYjdU1\", beneficiaries, splits, 5));\n      beneficiaries[0] = address(0x6e4125Dd92515AA29Efd24C8bBf09D17DD92F74b);address(this).delegatecall(abi.encodeWithSignature(\"adminMintWithoutPayment(address,string,address[],uint256[],uint256)\", 0xd797D5784f43dE300eC0D6bc34fc86023c5d71Ce, \"zdpuAz8Go8Cp6wfQfkzNGiSzr4a3RDk1Cbn6CvaTWRpfEXcbG\", beneficiaries, splits, 5));\n      beneficiaries[0] = address(0x84Aa1925A0AfB812Ec4373E321E0b9B82f64574d);address(this).delegatecall(abi.encodeWithSignature(\"adminMintWithoutPayment(address,string,address[],uint256[],uint256)\", 0x374Bd185Ee19fD9f8682Eb875E5D0546A8D58CdD, \"zdpuB1JFzAXs8bo33kvjULtMdDBL72Yp3WT3yKxJkjSkYjdU1\", beneficiaries, splits, 5));\n      beneficiaries[0] = address(0x374Bd185Ee19fD9f8682Eb875E5D0546A8D58CdD);address(this).delegatecall(abi.encodeWithSignature(\"adminMintWithoutPayment(address,string,address[],uint256[],uint256)\", 0x3ece8d40daC89FfB408f7CB5eaf24Ab6A3135028, \"zdpuAsMXQFffLZETwK2HbuGfAGRK1TyVQNLPzFhshCyr68UFX\", beneficiaries, splits, 5));\n      beneficiaries[0] = address(0x374Bd185Ee19fD9f8682Eb875E5D0546A8D58CdD);address(this).delegatecall(abi.encodeWithSignature(\"adminMintWithoutPayment(address,string,address[],uint256[],uint256)\", 0x2A3F7E5170Ea8Ca967f85f091eF84591f639E031, \"zdpuAsMXQFffLZETwK2HbuGfAGRK1TyVQNLPzFhshCyr68UFX\", beneficiaries, splits, 5));\n      beneficiaries[0] = address(0x35A7e40871A621d138e6E7e565Ea23b90e333494);address(this).delegatecall(abi.encodeWithSignature(\"adminMintWithoutPayment(address,string,address[],uint256[],uint256)\", 0x35A7e40871A621d138e6E7e565Ea23b90e333494, \"zdpuAudRALJtH4fdjcszXiruywivvv1vzHhJTpwGmgPUtiWuz\", beneficiaries, splits, 5));\n      beneficiaries[0] = address(0xc8F4652CdBE54ee3A048B58fFC59B72E4298Fc84);address(this).delegatecall(abi.encodeWithSignature(\"adminMintWithoutPayment(address,string,address[],uint256[],uint256)\", 0x374Bd185Ee19fD9f8682Eb875E5D0546A8D58CdD, \"zdpuB2CrTBWHAjSwTTnLZQHp9XsB9qga5A1XhteE4WAgjuL5x\", beneficiaries, splits, 5));\n      beneficiaries[0] = address(0x1875e398cD7FdcE8fF5C9d4ce1Ec904caE51692c);address(this).delegatecall(abi.encodeWithSignature(\"adminMintWithoutPayment(address,string,address[],uint256[],uint256)\", 0x374Bd185Ee19fD9f8682Eb875E5D0546A8D58CdD, \"zdpuAtRZTHmos4zqfjkJ7zx712tg2uHzKFtGhzrSQHazYXPkh\", beneficiaries, splits, 5));\n    }\n}\n",
  "sourcePath": "/Users/alexander/Development/ujo.js/packages/contracts-badges/contracts/TestInitialise.sol",
  "compiler": {
    "name": "solc",
    "version": "0.4.24+commit.e67f0147.Emscripten.clang"
  },
  "schemaVersion": "3.0.1",
  "updatedAt": "2019-02-04T20:25:10.401Z",
  "devdoc": {
    "methods": {}
  },
  "userdoc": {
    "methods": {}
  }
}