{
  "contractName": "TestNotification",
  "abi": [
    {
      "constant": true,
      "inputs": [],
      "name": "counter",
      "outputs": [
        {
          "name": "",
          "type": "uint256"
        }
      ],
      "payable": false,
      "stateMutability": "view",
      "type": "function"
    },
    {
      "constant": true,
      "inputs": [
        {
          "name": "",
          "type": "uint256"
        }
      ],
      "name": "additionalData",
      "outputs": [
        {
          "name": "cid",
          "type": "string"
        },
        {
          "name": "oracle",
          "type": "address"
        },
        {
          "name": "minted",
          "type": "uint256"
        }
      ],
      "payable": false,
      "stateMutability": "view",
      "type": "function"
    },
    {
      "constant": false,
      "inputs": [
        {
          "name": "_cid",
          "type": "string"
        },
        {
          "name": "_oracle",
          "type": "address"
        },
        {
          "name": "_buyer",
          "type": "address"
        },
        {
          "name": "_beneficiaries",
          "type": "address[]"
        },
        {
          "name": "_amounts",
          "type": "uint256[]"
        }
      ],
      "name": "receiveNotification",
      "outputs": [],
      "payable": false,
      "stateMutability": "nonpayable",
      "type": "function"
    },
    {
      "constant": true,
      "inputs": [
        {
          "name": "_tokenId",
          "type": "uint256"
        }
      ],
      "name": "getCid",
      "outputs": [
        {
          "name": "",
          "type": "string"
        }
      ],
      "payable": false,
      "stateMutability": "view",
      "type": "function"
    },
    {
      "constant": true,
      "inputs": [
        {
          "name": "_tokenId",
          "type": "uint256"
        }
      ],
      "name": "getBeneficiaries",
      "outputs": [
        {
          "name": "",
          "type": "address[]"
        }
      ],
      "payable": false,
      "stateMutability": "view",
      "type": "function"
    },
    {
      "constant": true,
      "inputs": [
        {
          "name": "_tokenId",
          "type": "uint256"
        }
      ],
      "name": "getAmounts",
      "outputs": [
        {
          "name": "",
          "type": "uint256[]"
        }
      ],
      "payable": false,
      "stateMutability": "view",
      "type": "function"
    },
    {
      "constant": true,
      "inputs": [
        {
          "name": "_tokenId",
          "type": "uint256"
        }
      ],
      "name": "getOracle",
      "outputs": [
        {
          "name": "",
          "type": "address"
        }
      ],
      "payable": false,
      "stateMutability": "view",
      "type": "function"
    },
    {
      "constant": true,
      "inputs": [
        {
          "name": "_tokenId",
          "type": "uint256"
        }
      ],
      "name": "getMinted",
      "outputs": [
        {
          "name": "",
          "type": "uint256"
        }
      ],
      "payable": false,
      "stateMutability": "view",
      "type": "function"
    }
  ],
  "bytecode": "0x6080604052600060015534801561001557600080fd5b506108b3806100256000396000f30060806040526004361061008d5763ffffffff7c010000000000000000000000000000000000000000000000000000000060003504166310a9de6081146100925780631a9e379f146100c65780633beaa6ab146100f057806359f7cf501461017d57806361bc221a146101e5578063783804d9146101fa5780637dab14eb14610212578063c7261ad3146102fb575b600080fd5b34801561009e57600080fd5b506100aa6004356103ab565b60408051600160a060020a039092168252519081900360200190f35b3480156100d257600080fd5b506100de6004356103c9565b60408051918252519081900360200190f35b3480156100fc57600080fd5b506101086004356103de565b6040805160208082528351818301528351919283929083019185019080838360005b8381101561014257818101518382015260200161012a565b50505050905090810190601f16801561016f5780820380516001836020036101000a031916815260200191505b509250505060405180910390f35b34801561018957600080fd5b5061019560043561047d565b60408051602080825283518183015283519192839290830191858101910280838360005b838110156101d15781810151838201526020016101b9565b505050509050019250505060405180910390f35b3480156101f157600080fd5b506100de6104df565b34801561020657600080fd5b506101956004356104e5565b34801561021e57600080fd5b506040805160206004803580820135601f81018490048402850184019095528484526102f99436949293602493928401919081908401838280828437505060408051818801358901803560208181028481018201909552818452989b600160a060020a038b3581169c8b8d01359091169b919a90995060609091019750929550908201935091829185019084908082843750506040805187358901803560208181028481018201909552818452989b9a9989019892975090820195509350839250850190849080828437509497506105519650505050505050565b005b34801561030757600080fd5b50610313600435610626565b604051808060200184600160a060020a0316600160a060020a03168152602001838152602001828103825285818151815260200191508051906020019080838360005b8381101561036e578181015183820152602001610356565b50505050905090810190601f16801561039b5780820380516001836020036101000a031916815260200191505b5094505050505060405180910390f35b600090815260208190526040902060030154600160a060020a031690565b60009081526020819052604090206004015490565b6000818152602081815260409182902080548351601f60026000196101006001861615020190931692909204918201849004840281018401909452808452606093928301828280156104715780601f1061044657610100808354040283529160200191610471565b820191906000526020600020905b81548152906001019060200180831161045457829003601f168201915b50505050509050919050565b6000818152602081815260409182902060020180548351818402810184019094528084526060939283018282801561047157602002820191906000526020600020905b8154815260200190600101908083116104c05750505050509050919050565b60015481565b6000818152602081815260409182902060010180548351818402810184019094528084526060939283018282801561047157602002820191906000526020600020905b8154600160a060020a031681526001909101906020018083116105285750505050509050919050565b6105596106da565b85815260208082018490526040808301849052600160a060020a03871660608401524260808401526001546000908152808352208251805184936105a1928492910190610713565b5060208281015180516105ba9260018501920190610791565b50604082015180516105d69160028401916020909101906107ff565b50606082015160038201805473ffffffffffffffffffffffffffffffffffffffff1916600160a060020a039092169190911790556080909101516004909101555050600180548101905550505050565b6000602081815291815260409081902080548251601f6002600019610100600186161502019093169290920491820185900485028101850190935280835290928391908301828280156106ba5780601f1061068f576101008083540402835291602001916106ba565b820191906000526020600020905b81548152906001019060200180831161069d57829003601f168201915b5050505060038301546004909301549192600160a060020a031691905083565b60a0604051908101604052806060815260200160608152602001606081526020016000600160a060020a03168152602001600081525090565b828054600181600116156101000203166002900490600052602060002090601f016020900481019282601f1061075457805160ff1916838001178555610781565b82800160010185558215610781579182015b82811115610781578251825591602001919060010190610766565b5061078d929150610839565b5090565b8280548282559060005260206000209081019282156107f3579160200282015b828111156107f3578251825473ffffffffffffffffffffffffffffffffffffffff1916600160a060020a039091161782556020909201916001909101906107b1565b5061078d929150610856565b8280548282559060005260206000209081019282156107815791602002820182811115610781578251825591602001919060010190610766565b61085391905b8082111561078d576000815560010161083f565b90565b61085391905b8082111561078d57805473ffffffffffffffffffffffffffffffffffffffff1916815560010161085c5600a165627a7a723058206edc822590dabc835b501501ad52dc11c234d727dbd82160c6544ed8957734660029",
  "source": "pragma solidity ^0.4.21; // solhint-disable-line\n\n\ncontract TestNotification {\n\n    mapping (uint256 => AdditionalTokenData) public additionalData;\n    uint256 public counter = 0;\n\n    struct AdditionalTokenData {\n        string cid;\n        address[] beneficiaries;\n        uint256[] amounts;\n        address oracle;\n        uint256 minted;\n    }\n\n    function receiveNotification(string _cid,\n    address _oracle,\n    address _buyer,\n    address[] _beneficiaries,\n    uint256[] _amounts) public {\n        AdditionalTokenData memory aData;\n        aData.cid = _cid;\n        aData.beneficiaries = _beneficiaries;\n        aData.amounts = _amounts;\n        aData.oracle = _oracle;\n        aData.minted = now; //solhint-disable-line not-rely-on-time\n        additionalData[counter] = aData;\n        counter += 1; // every new token gets a new ID\n    }\n\n    function getCid(uint256 _tokenId) public view returns (string) {\n        return additionalData[_tokenId].cid;\n    }\n\n    function getBeneficiaries(uint256 _tokenId) public view returns (address[]) {\n        return additionalData[_tokenId].beneficiaries;\n    }\n\n    function getAmounts(uint256 _tokenId) public view returns (uint256[]) {\n        return additionalData[_tokenId].amounts;\n    }\n\n    function getOracle(uint256 _tokenId) public view returns(address) {\n        return additionalData[_tokenId].oracle;\n    }\n\n    function getMinted(uint256 _tokenId) public view returns(uint256) {\n        return additionalData[_tokenId].minted;\n    }\n}\n",
  "sourcePath": "/Users/alexander/Development/ujo.js/packages/contracts-badges/contracts/TestNotification.sol",
  "compiler": {
    "name": "solc",
    "version": "0.4.24+commit.e67f0147.Emscripten.clang"
  },
  "schemaVersion": "3.0.1",
  "updatedAt": "2019-02-04T20:25:10.406Z",
  "devdoc": {
    "methods": {}
  },
  "userdoc": {
    "methods": {}
  }
}