{
  "contractName": "UjoAutoBadges",
  "abi": [
    {
      "constant": true,
      "inputs": [
        {
          "name": "interfaceID",
          "type": "bytes4"
        }
      ],
      "name": "supportsInterface",
      "outputs": [
        {
          "name": "",
          "type": "bool"
        }
      ],
      "payable": false,
      "stateMutability": "view",
      "type": "function"
    },
    {
      "constant": true,
      "inputs": [],
      "name": "name",
      "outputs": [
        {
          "name": "",
          "type": "string"
        }
      ],
      "payable": false,
      "stateMutability": "view",
      "type": "function"
    },
    {
      "constant": true,
      "inputs": [
        {
          "name": "_tokenId",
          "type": "uint256"
        }
      ],
      "name": "getApproved",
      "outputs": [
        {
          "name": "",
          "type": "address"
        }
      ],
      "payable": false,
      "stateMutability": "view",
      "type": "function"
    },
    {
      "constant": false,
      "inputs": [
        {
          "name": "_approved",
          "type": "address"
        },
        {
          "name": "_tokenId",
          "type": "uint256"
        }
      ],
      "name": "approve",
      "outputs": [],
      "payable": true,
      "stateMutability": "payable",
      "type": "function"
    },
    {
      "constant": true,
      "inputs": [],
      "name": "totalSupply",
      "outputs": [
        {
          "name": "",
          "type": "uint256"
        }
      ],
      "payable": false,
      "stateMutability": "view",
      "type": "function"
    },
    {
      "constant": false,
      "inputs": [
        {
          "name": "_from",
          "type": "address"
        },
        {
          "name": "_to",
          "type": "address"
        },
        {
          "name": "_tokenId",
          "type": "uint256"
        }
      ],
      "name": "transferFrom",
      "outputs": [],
      "payable": true,
      "stateMutability": "payable",
      "type": "function"
    },
    {
      "constant": true,
      "inputs": [
        {
          "name": "_owner",
          "type": "address"
        },
        {
          "name": "_index",
          "type": "uint256"
        }
      ],
      "name": "tokenOfOwnerByIndex",
      "outputs": [
        {
          "name": "_tokenId",
          "type": "uint256"
        }
      ],
      "payable": false,
      "stateMutability": "view",
      "type": "function"
    },
    {
      "constant": false,
      "inputs": [
        {
          "name": "_from",
          "type": "address"
        },
        {
          "name": "_to",
          "type": "address"
        },
        {
          "name": "_tokenId",
          "type": "uint256"
        }
      ],
      "name": "safeTransferFrom",
      "outputs": [],
      "payable": true,
      "stateMutability": "payable",
      "type": "function"
    },
    {
      "constant": true,
      "inputs": [
        {
          "name": "_index",
          "type": "uint256"
        }
      ],
      "name": "tokenByIndex",
      "outputs": [
        {
          "name": "",
          "type": "uint256"
        }
      ],
      "payable": false,
      "stateMutability": "view",
      "type": "function"
    },
    {
      "constant": true,
      "inputs": [
        {
          "name": "",
          "type": "uint256"
        },
        {
          "name": "",
          "type": "uint256"
        }
      ],
      "name": "verifiedBy",
      "outputs": [
        {
          "name": "",
          "type": "address"
        }
      ],
      "payable": false,
      "stateMutability": "view",
      "type": "function"
    },
    {
      "constant": true,
      "inputs": [],
      "name": "counter",
      "outputs": [
        {
          "name": "",
          "type": "uint256"
        }
      ],
      "payable": false,
      "stateMutability": "view",
      "type": "function"
    },
    {
      "constant": true,
      "inputs": [
        {
          "name": "_tokenId",
          "type": "uint256"
        }
      ],
      "name": "ownerOf",
      "outputs": [
        {
          "name": "",
          "type": "address"
        }
      ],
      "payable": false,
      "stateMutability": "view",
      "type": "function"
    },
    {
      "constant": true,
      "inputs": [
        {
          "name": "_owner",
          "type": "address"
        }
      ],
      "name": "balanceOf",
      "outputs": [
        {
          "name": "",
          "type": "uint256"
        }
      ],
      "payable": false,
      "stateMutability": "view",
      "type": "function"
    },
    {
      "constant": true,
      "inputs": [
        {
          "name": "",
          "type": "address"
        }
      ],
      "name": "approvedHandlers",
      "outputs": [
        {
          "name": "",
          "type": "bool"
        }
      ],
      "payable": false,
      "stateMutability": "view",
      "type": "function"
    },
    {
      "constant": true,
      "inputs": [],
      "name": "symbol",
      "outputs": [
        {
          "name": "",
          "type": "string"
        }
      ],
      "payable": false,
      "stateMutability": "view",
      "type": "function"
    },
    {
      "constant": false,
      "inputs": [
        {
          "name": "_operator",
          "type": "address"
        },
        {
          "name": "_approved",
          "type": "bool"
        }
      ],
      "name": "setApprovalForAll",
      "outputs": [],
      "payable": false,
      "stateMutability": "nonpayable",
      "type": "function"
    },
    {
      "constant": false,
      "inputs": [
        {
          "name": "_from",
          "type": "address"
        },
        {
          "name": "_to",
          "type": "address"
        },
        {
          "name": "_tokenId",
          "type": "uint256"
        },
        {
          "name": "data",
          "type": "bytes"
        }
      ],
      "name": "safeTransferFrom",
      "outputs": [],
      "payable": true,
      "stateMutability": "payable",
      "type": "function"
    },
    {
      "constant": true,
      "inputs": [
        {
          "name": "_tokenId",
          "type": "uint256"
        }
      ],
      "name": "tokenURI",
      "outputs": [
        {
          "name": "",
          "type": "string"
        }
      ],
      "payable": false,
      "stateMutability": "view",
      "type": "function"
    },
    {
      "constant": true,
      "inputs": [
        {
          "name": "_owner",
          "type": "address"
        },
        {
          "name": "_operator",
          "type": "address"
        }
      ],
      "name": "isApprovedForAll",
      "outputs": [
        {
          "name": "",
          "type": "bool"
        }
      ],
      "payable": false,
      "stateMutability": "view",
      "type": "function"
    },
    {
      "constant": true,
      "inputs": [],
      "name": "admin",
      "outputs": [
        {
          "name": "",
          "type": "address"
        }
      ],
      "payable": false,
      "stateMutability": "view",
      "type": "function"
    },
    {
      "inputs": [
        {
          "name": "_admin",
          "type": "address"
        }
      ],
      "payable": false,
      "stateMutability": "nonpayable",
      "type": "constructor"
    },
    {
      "anonymous": false,
      "inputs": [
        {
          "indexed": true,
          "name": "verifier",
          "type": "address"
        },
        {
          "indexed": true,
          "name": "tokenId",
          "type": "uint256"
        }
      ],
      "name": "LogVerify",
      "type": "event"
    },
    {
      "anonymous": false,
      "inputs": [
        {
          "indexed": true,
          "name": "_from",
          "type": "address"
        },
        {
          "indexed": true,
          "name": "_to",
          "type": "address"
        },
        {
          "indexed": true,
          "name": "_tokenId",
          "type": "uint256"
        }
      ],
      "name": "Transfer",
      "type": "event"
    },
    {
      "anonymous": false,
      "inputs": [
        {
          "indexed": true,
          "name": "_owner",
          "type": "address"
        },
        {
          "indexed": true,
          "name": "_approved",
          "type": "address"
        },
        {
          "indexed": true,
          "name": "_tokenId",
          "type": "uint256"
        }
      ],
      "name": "Approval",
      "type": "event"
    },
    {
      "anonymous": false,
      "inputs": [
        {
          "indexed": true,
          "name": "_owner",
          "type": "address"
        },
        {
          "indexed": true,
          "name": "_operator",
          "type": "address"
        },
        {
          "indexed": false,
          "name": "_approved",
          "type": "bool"
        }
      ],
      "name": "ApprovalForAll",
      "type": "event"
    },
    {
      "constant": true,
      "inputs": [
        {
          "name": "_tokenId",
          "type": "uint256"
        }
      ],
      "name": "getVerifiers",
      "outputs": [
        {
          "name": "",
          "type": "address[]"
        }
      ],
      "payable": false,
      "stateMutability": "view",
      "type": "function"
    },
    {
      "constant": true,
      "inputs": [
        {
          "name": "_owner",
          "type": "address"
        }
      ],
      "name": "getAllTokens",
      "outputs": [
        {
          "name": "",
          "type": "uint256[]"
        }
      ],
      "payable": false,
      "stateMutability": "view",
      "type": "function"
    },
    {
      "constant": false,
      "inputs": [
        {
          "name": "_tokenId",
          "type": "uint256"
        }
      ],
      "name": "verifyBadge",
      "outputs": [],
      "payable": false,
      "stateMutability": "nonpayable",
      "type": "function"
    },
    {
      "constant": false,
      "inputs": [
        {
          "name": "_handler",
          "type": "address"
        },
        {
          "name": "_state",
          "type": "bool"
        }
      ],
      "name": "setApprovedHandler",
      "outputs": [],
      "payable": false,
      "stateMutability": "nonpayable",
      "type": "function"
    },
    {
      "constant": false,
      "inputs": [
        {
          "name": "_newAdmin",
          "type": "address"
        }
      ],
      "name": "changeAdmin",
      "outputs": [],
      "payable": false,
      "stateMutability": "nonpayable",
      "type": "function"
    },
    {
      "constant": false,
      "inputs": [
        {
          "name": "_tokenID",
          "type": "uint256"
        },
        {
          "name": "URI",
          "type": "string"
        }
      ],
      "name": "setTokenURI",
      "outputs": [],
      "payable": false,
      "stateMutability": "nonpayable",
      "type": "function"
    },
    {
      "constant": false,
      "inputs": [
        {
          "name": "_cid",
          "type": "string"
        },
        {
          "name": "_oracle",
          "type": "address"
        },
        {
          "name": "_buyer",
          "type": "address"
        },
        {
          "name": "_beneficiaries",
          "type": "address[]"
        },
        {
          "name": "_amounts",
          "type": "uint256[]"
        }
      ],
      "name": "receiveNotification",
      "outputs": [],
      "payable": true,
      "stateMutability": "payable",
      "type": "function"
    },
    {
      "constant": false,
      "inputs": [
        {
          "name": "_tokenId",
          "type": "uint256"
        }
      ],
      "name": "burnToken",
      "outputs": [],
      "payable": false,
      "stateMutability": "nonpayable",
      "type": "function"
    }
  ],
  "bytecode": "0x60806040526000600b553480156200001657600080fd5b50604051602080620019c58339810160408181529151600a8054600160a060020a031916600160a060020a0383161781558383019093528282527f556a6f20426164676573000000000000000000000000000000000000000000006020909201918252916200008891600091620000d7565b506040805180820190915260038082527f554a4f00000000000000000000000000000000000000000000000000000000006020909201918252620000cf91600191620000d7565b50506200017c565b828054600181600116156101000203166002900490600052602060002090601f016020900481019282601f106200011a57805160ff19168380011785556200014a565b828001600101855582156200014a579182015b828111156200014a5782518255916020019190600101906200012d565b50620001589291506200015c565b5090565b6200017991905b8082111562000158576000815560010162000163565b90565b611839806200018c6000396000f3006080604052600436106101505763ffffffff60e060020a60003504166301ffc9a7811461015557806306fdde031461018b578063081812fc14610215578063095ea7b314610249578063162094c414610262578063178b6de6146102c057806318160ddd146103315780631933cd0d1461035857806323b872dd1461037e5780632f745c591461039b57806342842e0e146103bf5780634f6ccce7146103dc57806353a79ff3146103f457806361bc221a1461040f5780636352211e1461042457806370a082311461043c5780637b47ec1a1461045d5780637dab14eb146104755780638f2839701461054f57806393d750131461057057806395d89b4114610591578063a22cb465146105a6578063b88d4fde146105cc578063c87b56dd146105f8578063e985e9c514610610578063f3bce8f214610637578063f5aa29c81461064f578063f851a44014610667575b600080fd5b34801561016157600080fd5b50610177600160e060020a03196004351661067c565b604080519115158252519081900360200190f35b34801561019757600080fd5b506101a061075d565b6040805160208082528351818301528351919283929083019185019080838360005b838110156101da5781810151838201526020016101c2565b50505050905090810190601f1680156102075780820380516001836020036101000a031916815260200191505b509250505060405180910390f35b34801561022157600080fd5b5061022d6004356107eb565b60408051600160a060020a039092168252519081900360200190f35b610260600160a060020a036004351660243561082d565b005b34801561026e57600080fd5b5060408051602060046024803582810135601f81018590048502860185019096528585526102609583359536956044949193909101919081908401838280828437509497506108939650505050505050565b3480156102cc57600080fd5b506102e1600160a060020a03600435166108ce565b60408051602080825283518183015283519192839290830191858101910280838360005b8381101561031d578181015183820152602001610305565b505050509050019250505060405180910390f35b34801561033d57600080fd5b50610346610980565b60408051918252519081900360200190f35b34801561036457600080fd5b50610260600160a060020a03600435166024351515610987565b610260600160a060020a03600435811690602435166044356109c9565b3480156103a757600080fd5b50610346600160a060020a0360043516602435610a75565b610260600160a060020a0360043581169060243516604435610b13565b3480156103e857600080fd5b50610346600435610c91565b34801561040057600080fd5b5061022d600435602435610cc2565b34801561041b57600080fd5b50610346610cf9565b34801561043057600080fd5b5061022d600435610cff565b34801561044857600080fd5b50610346600160a060020a0360043516610d41565b34801561046957600080fd5b50610260600435610d74565b6040805160206004803580820135601f81018490048402850184019095528484526102609436949293602493928401919081908401838280828437505060408051818801358901803560208181028481018201909552818452989b600160a060020a038b3581169c8b8d01359091169b919a90995060609091019750929550908201935091829185019084908082843750506040805187358901803560208181028481018201909552818452989b9a998901989297509082019550935083925085019084908082843750949750610dd39650505050505050565b34801561055b57600080fd5b50610260600160a060020a0360043516610e46565b34801561057c57600080fd5b50610177600160a060020a0360043516610e8c565b34801561059d57600080fd5b506101a0610ea1565b3480156105b257600080fd5b50610260600160a060020a03600435166024351515610efb565b610260600160a060020a0360048035821691602480359091169160443591606435908101910135610f7f565b34801561060457600080fd5b506101a0600435611144565b34801561061c57600080fd5b50610177600160a060020a03600435811690602435166111e5565b34801561064357600080fd5b50610260600435611213565b34801561065b57600080fd5b506102e160043561127f565b34801561067357600080fd5b5061022d6112ea565b6000600160e060020a031982167f80ac58cd0000000000000000000000000000000000000000000000000000000014806106df5750600160e060020a031982167f5b5e139f00000000000000000000000000000000000000000000000000000000145b806107135750600160e060020a031982167f780e9d6300000000000000000000000000000000000000000000000000000000145b806107475750600160e060020a031982167f01ffc9a700000000000000000000000000000000000000000000000000000000145b1561075457506001610758565b5060005b919050565b6000805460408051602060026001851615610100026000190190941693909304601f810184900484028201840190925281815292918301828280156107e35780601f106107b8576101008083540402835291602001916107e3565b820191906000526020600020905b8154815290600101906020018083116107c657829003601f168201915b505050505081565b6000818152600560205260408120548290600160a060020a0316151561081057600080fd5b5050600090815260076020526040902054600160a060020a031690565b6000818152600560205260408120548290600160a060020a0316151561085257600080fd5b8261085c816112f9565b151561086757600080fd5b600084815260056020526040902054600160a060020a0316925061088c838686611350565b5050505050565b600a54600160a060020a031633146108aa57600080fd5b600082815260096020908152604090912082516108c992840190611755565b505050565b600160a060020a038116600090815260046020908152604080832054815181815281840281019093019091526060929091839190838015610919578160200160208202803883390190505b509150600090505b8281101561097857600160a060020a038516600090815260046020526040902080548290811061094d57fe5b9060005260206000200154828281518110151561096657fe5b60209081029091010152600101610921565b509392505050565b6002545b90565b600a54600160a060020a0316331461099e57600080fd5b600160a060020a03919091166000908152600c60205260409020805460ff1916911515919091179055565b6000818152600560205260409020548190600160a060020a031615156109ee57600080fd5b8383836109fa816112f9565b80610a1b5750600081815260076020526040902054600160a060020a031633145b1515610a2657600080fd5b600081815260056020526040902054600160a060020a03848116911614610a4c57600080fd5b600160a060020a0382161515610a6157600080fd5b610a6c878787611408565b50505050505050565b600080805260056020527f05b8ccbb9d4d8fb16ea74ce3c29a41f1b461fbdaff4714a0d9a8eb05499746bc548190600160a060020a03161515610ab757600080fd5b600160a060020a0384166000908152600460205260409020548310610adb57600080fd5b600160a060020a0384166000908152600460205260409020805484908110610aff57fe5b906000526020600020015491505092915050565b6000818152600560205260408120548290600160a060020a03161515610b3857600080fd5b848484610b44816112f9565b80610b655750600081815260076020526040902054600160a060020a031633145b1515610b7057600080fd5b600081815260056020526040902054600160a060020a03848116911614610b9657600080fd5b600160a060020a0382161515610bab57600080fd5b610bb6888888611408565b863b94506000851115610c8757604080517f150b7a0200000000000000000000000000000000000000000000000000000000808252336004830152600160a060020a038b81166024840152604483018a90526080606484015260006084840181905293519193908b169263150b7a029260c48083019360209383900390910190829087803b158015610c4757600080fd5b505af1158015610c5b573d6000803e3d6000fd5b505050506040513d6020811015610c7157600080fd5b5051600160e060020a03191614610c8757600080fd5b5050505050505050565b6002546000908210610ca257600080fd5b6002805483908110610cb057fe5b90600052602060002001549050919050565b600d60205281600052604060002081815481101515610cdd57fe5b600091825260209091200154600160a060020a03169150829050565b600b5481565b6000818152600560205260408120548290600160a060020a03161515610d2457600080fd5b5050600090815260056020526040902054600160a060020a031690565b6000600160a060020a0382161515610d5857600080fd5b50600160a060020a031660009081526004602052604090205490565b600081815260056020526040902054600160a060020a03163314610d9757600080fd5b610da1338261148b565b604051819060009033907fddf252ad1be2c89b69c2b068fc378daa952ba7f163c4a11628f55a4df523b3ef908390a450565b336000908152600c602052604090205460ff161515610df157600080fd5b610dfd83600b546116a7565b600b54604051600160a060020a038516906000907fddf252ad1be2c89b69c2b068fc378daa952ba7f163c4a11628f55a4df523b3ef908290a45050600b80546001019055505050565b600a54600160a060020a03163314610e5d57600080fd5b600a805473ffffffffffffffffffffffffffffffffffffffff1916600160a060020a0392909216919091179055565b600c6020526000908152604090205460ff1681565b60018054604080516020600284861615610100026000190190941693909304601f810184900484028201840190925281815292918301828280156107e35780601f106107b8576101008083540402835291602001916107e3565b600160a060020a038216331415610f1157600080fd5b336000818152600860209081526040808320600160a060020a03871680855290835292819020805460ff1916861515908117909155815190815290519293927f17307eab39ab6107e8899845ad3d59bd9653f200f220920489ca2b5937696c31929181900390910190a35050565b6000838152600560205260408120548490600160a060020a03161515610fa457600080fd5b868686610fb0816112f9565b80610fd15750600081815260076020526040902054600160a060020a031633145b1515610fdc57600080fd5b600081815260056020526040902054600160a060020a0384811691161461100257600080fd5b600160a060020a038216151561101757600080fd5b6110228a8a8a611408565b883b945060008511156111385763150b7a0260e060020a027bffffffffffffffffffffffffffffffffffffffffffffffffffffffff191689600160a060020a031663150b7a02338d8c8c8c6040518663ffffffff1660e060020a0281526004018086600160a060020a0316600160a060020a0316815260200185600160a060020a0316600160a060020a0316815260200184815260200180602001828103825284848281815260200192508082843782019150509650505050505050602060405180830381600087803b1580156110f857600080fd5b505af115801561110c573d6000803e3d6000fd5b505050506040513d602081101561112257600080fd5b5051600160e060020a0319161461113857600080fd5b50505050505050505050565b60008181526009602090815260409182902080548351601f60026000196101006001861615020190931692909204918201849004840281018401909452808452606093928301828280156111d95780601f106111ae576101008083540402835291602001916111d9565b820191906000526020600020905b8154815290600101906020018083116111bc57829003601f168201915b50505050509050919050565b600160a060020a03918216600090815260086020908152604080832093909416825291909152205460ff1690565b6000818152600d602090815260408083208054600181018255908452918320909101805473ffffffffffffffffffffffffffffffffffffffff191633908117909155905183927fc39acd4a741ea13c95e4e2584a7d0d7360be5e6d836aade72e5a7b1a56d2aa0a91a350565b6000818152600d60209081526040918290208054835181840281018401909452808452606093928301828280156111d957602002820191906000526020600020905b8154600160a060020a031681526001909101906020018083116112c15750505050509050919050565b600a54600160a060020a031681565b600081815260056020526040812054600160a060020a031633148061134a5750600082815260056020908152604080832054600160a060020a031683526008825280832033845290915290205460ff165b92915050565b600160a060020a03828116908416141561136957600080fd5b600081815260076020526040902054600160a060020a03161580156113955750600160a060020a038216155b1561139f57600080fd5b600081815260076020526040808220805473ffffffffffffffffffffffffffffffffffffffff1916600160a060020a0386811691821790925591518493918716917f8c5be1e5ebec7d5bd14f71427d1e84f3dd0314c0f7b2291e5b200ac8c7c3b92591a4505050565b600081815260076020526040902054600160a060020a0316156114315761143183600083611350565b61143b838261148b565b61144582826116a7565b8082600160a060020a031684600160a060020a03167fddf252ad1be2c89b69c2b068fc378daa952ba7f163c4a11628f55a4df523b3ef60405160405180910390a4505050565b60008181526003602052604081205460028054919290819060001984018481106114b157fe5b90600052602060002001546002858154811015156114cb57fe5b906000526020600020018190555083600360006002600187038154811015156114f057fe5b906000526020600020015481526020019081526020016000208190555060026001840381548110151561151f57fe5b600091825260208220015560028054600019019061153d90826117d3565b505050600083815260066020908152604080832054600160a060020a03881684526004909252909120805490600019820182811061157757fe5b6000918252602080832090910154600160a060020a0389168352600490915260409091208054849081106115a757fe5b90600052602060002001819055508160066000600460008a600160a060020a0316600160a060020a03168152602001908152602001600020600185038154811015156115ef57fe5b90600052602060002001548152602001908152602001600020819055506004600087600160a060020a0316600160a060020a031681526020019081526020016000206001820381548110151561164157fe5b60009182526020808320909101829055600160a060020a038816825260049052604090208054600019019061167690826117d3565b50505060009283525050600560205260409020805473ffffffffffffffffffffffffffffffffffffffff1916905550565b60028054600181810183557f405787fa12a823e0f2b7631cc41b3ba8828b3321ca811111fa75cd3aa3bb5ace909101839055905460008381526003602090815260408083206000199485019055600582528083208054600160a060020a0390981673ffffffffffffffffffffffffffffffffffffffff199098168817905595825260048152858220805494850181558083528183209094018590559254938152600690925292902091019055565b828054600181600116156101000203166002900490600052602060002090601f016020900481019282601f1061179657805160ff19168380011785556117c3565b828001600101855582156117c3579182015b828111156117c35782518255916020019190600101906117a8565b506117cf9291506117f3565b5090565b8154818355818111156108c9576000838152602090206108c99181019083015b61098491905b808211156117cf57600081556001016117f95600a165627a7a72305820909720d072d12c3fcd1147994b2a2779c58f8ea961a39f1d25aaa8083116a7720029",
  "source": "pragma solidity ^0.4.21;\nimport \"./eip721/EIP721.sol\";\n\n\ncontract UjoAutoBadges is EIP721 {\n\n\n    address public admin;\n    uint256 public counter = 0;\n    mapping (address => bool) public approvedHandlers;\n    // mapping (uint256 => AdditionalTokenData) public additionalData;\n    mapping (uint256 => address[]) public verifiedBy;\n\n    event LogVerify(address indexed verifier, uint256 indexed tokenId);\n    /* struct AdditionalTokenData {\n        string cid;\n        address[] beneficiaries;\n        uint256[] amounts;\n        address oracle;\n        uint256 minted;\n        address[] verifiedBy;\n    }*/\n\n    function UjoAutoBadges(address _admin) public {\n        admin = _admin;\n        name = \"Ujo Badges\";\n        symbol = \"UJO\";\n    }\n    /* function getCid(uint256 _tokenId) public view returns (string) {\n        return additionalData[_tokenId].cid;\n    }\n\n    function getBeneficiaries(uint256 _tokenId) public view returns (address[]) {\n        return additionalData[_tokenId].beneficiaries;\n    }\n\n    function getAmounts(uint256 _tokenId) public view returns (uint256[]) {\n        return additionalData[_tokenId].amounts;\n    }\n\n    function getOracle(uint256 _tokenId) public view returns(address) {\n        return additionalData[_tokenId].oracle;\n    }\n\n    function getMinted(uint256 _tokenId) public view returns(uint256) {\n        return additionalData[_tokenId].minted;\n    }*/\n\n    function getVerifiers(uint256 _tokenId) public view returns (address[]) {\n        return verifiedBy[_tokenId];\n    }\n\n    // additional helper function not in EIP721.\n    function getAllTokens(address _owner) public view returns (uint256[]) {\n        uint size = ownedTokens[_owner].length;\n        uint[] memory result = new uint256[](size);\n        for (uint i = 0; i < size; i++) {\n            result[i] = ownedTokens[_owner][i];\n        }\n        return result;\n    }\n\n    modifier onlyAdmin() {\n        require(msg.sender == admin);\n        _;\n    }\n\n    modifier onlyApprovedHandler() {\n        require(approvedHandlers[msg.sender]);\n        _;\n    }\n\n    /*\n    Since badges are automatically created from any release purchase,\n    any purchase that does not conform to the expected criteria set in the off-chain\n    license is not regarded as legitimate. In short term, Ujo, verifies this off-chain.\n    However, over time, anyone can submit verifications & accordingly check on-chain if the\n    badges were issued according to the right criteria.\n    */\n    function verifyBadge(uint256 _tokenId) public {\n        verifiedBy[_tokenId].push(msg.sender);\n        emit LogVerify(msg.sender, _tokenId);\n    }\n\n    function setApprovedHandler(address _handler, bool _state) public onlyAdmin {\n        approvedHandlers[_handler] = _state;\n    }\n\n    function changeAdmin(address _newAdmin) public onlyAdmin {\n        admin = _newAdmin;\n    }\n\n    function setTokenURI(uint256 _tokenID, string URI) public { /* solhint-disable func-param-name-mixedcase */\n        require(msg.sender == admin);\n        tokenURIs[_tokenID] = URI;\n    }\n\n    /* solhint-disable no-unused-vars */ \n    function receiveNotification(string _cid,\n    address _oracle,\n    address _buyer,\n    address[] _beneficiaries,\n    uint256[] _amounts) public payable onlyApprovedHandler {\n        addToken(_buyer, counter);\n        /* AdditionalTokenData memory aData;\n        aData.cid = _cid;\n        aData.beneficiaries = _beneficiaries;\n        aData.amounts = _amounts;\n        aData.oracle = _oracle;\n        aData.minted = now; //solhint-disable-line not-rely-on-time\n        additionalData[counter] = aData;*/\n\n        emit Transfer(0, _buyer, counter);\n        counter += 1; // every new token gets a new ID\n    }\n\n    function burnToken(uint256 _tokenId) public {\n        require(ownerOfToken[_tokenId] == msg.sender); //token should be in control of owner\n        removeToken(msg.sender, _tokenId);\n        emit Transfer(msg.sender, 0, _tokenId);\n    }\n}\n",
  "sourcePath": "/Users/alexander/Development/ujo.js/packages/contracts-badges/contracts/UjoAutoBadges.sol",
  "compiler": {
    "name": "solc",
    "version": "0.4.24+commit.e67f0147.Emscripten.clang"
  },
  "schemaVersion": "3.0.1",
  "updatedAt": "2019-02-04T20:25:10.407Z",
  "devdoc": {
    "methods": {
      "approve(address,uint256)": {
        "details": "The zero address indicates there is no approved address.  Throws unless `msg.sender` is the current NFT owner, or an authorized  operator of the current owner.",
        "params": {
          "_approved": "The new approved NFT controller",
          "_tokenId": "The NFT to approve"
        }
      },
      "balanceOf(address)": {
        "details": "NFTs assigned to the zero address are considered invalid, and this  function throws for queries about the zero address.",
        "params": {
          "_owner": "An address for whom to query the balance"
        },
        "return": "The number of NFTs owned by `_owner`, possibly zero"
      },
      "getApproved(uint256)": {
        "details": "Throws if `_tokenId` is not a valid NFT",
        "params": {
          "_tokenId": "The NFT to find the approved address for"
        }
      },
      "isApprovedForAll(address,address)": {
        "params": {
          "_operator": "The address that acts on behalf of the owner",
          "_owner": "The address that owns the NFTs"
        },
        "return": "True if `_operator` is an approved operator for `_owner`, false otherwise"
      },
      "ownerOf(uint256)": {
        "details": "NFTs assigned to zero address are considered invalid, and queries  about them do throw.",
        "params": {
          "_tokenId": "The identifier for an NFT"
        },
        "return": "The address of the owner of the NFT"
      },
      "safeTransferFrom(address,address,uint256)": {
        "details": "This works identically to the other function with an extra data parameter,  except this function just sets data to \"\"",
        "params": {
          "_from": "The current owner of the NFT",
          "_to": "The new owner",
          "_tokenId": "The NFT to transfer"
        }
      },
      "safeTransferFrom(address,address,uint256,bytes)": {
        "details": "Throws unless `msg.sender` is the current owner, an authorized  operator, or the approved address for this NFT. Throws if `_from` is  not the current owner. Throws if `_to` is the zero address. Throws if  `_tokenId` is not a valid NFT. When transfer is complete, this function  checks if `_to` is a smart contract (code size > 0). If so, it calls  `onERC721Received` on `_to` and throws if the return value is not  `bytes4(keccak256(\"onERC721Received(address,address,uint256,bytes)\"))`.",
        "params": {
          "_from": "The current owner of the NFT",
          "_to": "The new owner",
          "_tokenId": "The NFT to transfer",
          "data": "Additional data with no specified format, sent in call to `_to`"
        }
      },
      "setApprovalForAll(address,bool)": {
        "details": "Emits the ApprovalForAll event. The contract MUST allow  multiple operators per owner.",
        "params": {
          "_approved": "True if the operator is approved, false to revoke approval",
          "_operator": "Address to add to the set of authorized operators."
        }
      },
      "supportsInterface(bytes4)": {
        "details": "Interface identification is specified in ERC-165. This function  uses less than 30,000 gas.",
        "params": {
          "interfaceID": "The interface identifier, as specified in ERC-165"
        },
        "return": "`true` if the contract implements `interfaceID` and `interfaceID` is not 0xffffffff, `false` otherwise"
      },
      "tokenByIndex(uint256)": {
        "details": "Throws if `_index` >= `totalSupply()`.",
        "params": {
          "_index": "A counter less than `totalSupply()`"
        },
        "return": "The token identifier for the `_index`th NFT,  (sort order not specified)"
      },
      "tokenOfOwnerByIndex(address,uint256)": {
        "details": "Throws if `_index` >= `balanceOf(_owner)` or if  `_owner` is the zero address, representing invalid NFTs.",
        "params": {
          "_index": "A counter less than `balanceOf(_owner)`",
          "_owner": "An address where we are interested in NFTs owned by them"
        },
        "return": "The token identifier for the `_index`th NFT assigned to `_owner`,   (sort order not specified)"
      },
      "tokenURI(uint256)": {
        "details": "Throws if `_tokenId` is not a valid NFT. URIs are defined in RFC  3986. The URI may point to a JSON file that conforms to the \"ERC721  Metadata JSON Schema\"."
      },
      "totalSupply()": {
        "return": "A count of valid NFTs tracked by this contract, where each one of  them has an assigned and queryable owner not equal to the zero address"
      },
      "transferFrom(address,address,uint256)": {
        "details": "Throws unless `msg.sender` is the current owner, an authorized  operator, or the approved address for this NFT. Throws if `_from` is  not the current owner. Throws if `_to` is the zero address. Throws if  `_tokenId` is not a valid NFT.",
        "params": {
          "_from": "The current owner of the NFT",
          "_to": "The new owner",
          "_tokenId": "The NFT to transfer"
        }
      }
    }
  },
  "userdoc": {
    "methods": {
      "approve(address,uint256)": {
        "notice": "Change or reaffirm the approved address for an NFT."
      },
      "balanceOf(address)": {
        "notice": "Count all NFTs assigned to an owner"
      },
      "getApproved(uint256)": {
        "notice": "Get the approved address for a single NFT"
      },
      "isApprovedForAll(address,address)": {
        "notice": "Query if an address is an authorized operator for another address"
      },
      "ownerOf(uint256)": {
        "notice": "Find the owner of an NFT"
      },
      "safeTransferFrom(address,address,uint256)": {
        "notice": "Transfers the ownership of an NFT from one address to another address"
      },
      "safeTransferFrom(address,address,uint256,bytes)": {
        "notice": "Transfers the ownership of an NFT from one address to another address"
      },
      "setApprovalForAll(address,bool)": {
        "notice": "Enable or disable approval for a third party (\"operator\") to manage  all of `msg.sender`'s assets."
      },
      "supportsInterface(bytes4)": {
        "notice": "Query if a contract implements an interface"
      },
      "tokenByIndex(uint256)": {
        "notice": "Enumerate valid NFTs"
      },
      "tokenOfOwnerByIndex(address,uint256)": {
        "notice": "Enumerate NFTs assigned to an owner"
      },
      "tokenURI(uint256)": {
        "notice": "A distinct Uniform Resource Identifier (URI) for a given asset."
      },
      "totalSupply()": {
        "notice": "Count NFTs tracked by this contract"
      },
      "transferFrom(address,address,uint256)": {
        "notice": "Transfer ownership of an NFT -- THE CALLER IS RESPONSIBLE  TO CONFIRM THAT `_to` IS CAPABLE OF RECEIVING NFTS OR ELSE  THEY MAY BE PERMANENTLY LOST"
      }
    }
  }
}