{
  "contractName": "UjoPatronageBadgesFunctions",
  "abi": [
    {
      "constant": true,
      "inputs": [
        {
          "name": "interfaceID",
          "type": "bytes4"
        }
      ],
      "name": "supportsInterface",
      "outputs": [
        {
          "name": "",
          "type": "bool"
        }
      ],
      "payable": false,
      "stateMutability": "view",
      "type": "function",
      "signature": "0x01ffc9a7"
    },
    {
      "constant": true,
      "inputs": [],
      "name": "name",
      "outputs": [
        {
          "name": "",
          "type": "string"
        }
      ],
      "payable": false,
      "stateMutability": "view",
      "type": "function",
      "signature": "0x06fdde03"
    },
    {
      "constant": true,
      "inputs": [
        {
          "name": "_tokenId",
          "type": "uint256"
        }
      ],
      "name": "getApproved",
      "outputs": [
        {
          "name": "",
          "type": "address"
        }
      ],
      "payable": false,
      "stateMutability": "view",
      "type": "function",
      "signature": "0x081812fc"
    },
    {
      "constant": false,
      "inputs": [
        {
          "name": "_approved",
          "type": "address"
        },
        {
          "name": "_tokenId",
          "type": "uint256"
        }
      ],
      "name": "approve",
      "outputs": [],
      "payable": true,
      "stateMutability": "payable",
      "type": "function",
      "signature": "0x095ea7b3"
    },
    {
      "constant": true,
      "inputs": [],
      "name": "totalSupply",
      "outputs": [
        {
          "name": "",
          "type": "uint256"
        }
      ],
      "payable": false,
      "stateMutability": "view",
      "type": "function",
      "signature": "0x18160ddd"
    },
    {
      "constant": true,
      "inputs": [
        {
          "name": "",
          "type": "uint256"
        }
      ],
      "name": "tokenURIIDs",
      "outputs": [
        {
          "name": "",
          "type": "string"
        }
      ],
      "payable": false,
      "stateMutability": "view",
      "type": "function",
      "signature": "0x1d91efa9"
    },
    {
      "constant": false,
      "inputs": [
        {
          "name": "_from",
          "type": "address"
        },
        {
          "name": "_to",
          "type": "address"
        },
        {
          "name": "_tokenId",
          "type": "uint256"
        }
      ],
      "name": "transferFrom",
      "outputs": [],
      "payable": true,
      "stateMutability": "payable",
      "type": "function",
      "signature": "0x23b872dd"
    },
    {
      "constant": true,
      "inputs": [],
      "name": "tokenURIBase",
      "outputs": [
        {
          "name": "",
          "type": "string"
        }
      ],
      "payable": false,
      "stateMutability": "view",
      "type": "function",
      "signature": "0x261220a3"
    },
    {
      "constant": true,
      "inputs": [
        {
          "name": "_owner",
          "type": "address"
        },
        {
          "name": "_index",
          "type": "uint256"
        }
      ],
      "name": "tokenOfOwnerByIndex",
      "outputs": [
        {
          "name": "_tokenId",
          "type": "uint256"
        }
      ],
      "payable": false,
      "stateMutability": "view",
      "type": "function",
      "signature": "0x2f745c59"
    },
    {
      "constant": false,
      "inputs": [
        {
          "name": "_from",
          "type": "address"
        },
        {
          "name": "_to",
          "type": "address"
        },
        {
          "name": "_tokenId",
          "type": "uint256"
        }
      ],
      "name": "safeTransferFrom",
      "outputs": [],
      "payable": true,
      "stateMutability": "payable",
      "type": "function",
      "signature": "0x42842e0e"
    },
    {
      "constant": true,
      "inputs": [
        {
          "name": "_index",
          "type": "uint256"
        }
      ],
      "name": "tokenByIndex",
      "outputs": [
        {
          "name": "",
          "type": "uint256"
        }
      ],
      "payable": false,
      "stateMutability": "view",
      "type": "function",
      "signature": "0x4f6ccce7"
    },
    {
      "constant": true,
      "inputs": [
        {
          "name": "_tokenId",
          "type": "uint256"
        }
      ],
      "name": "ownerOf",
      "outputs": [
        {
          "name": "",
          "type": "address"
        }
      ],
      "payable": false,
      "stateMutability": "view",
      "type": "function",
      "signature": "0x6352211e"
    },
    {
      "constant": true,
      "inputs": [
        {
          "name": "_owner",
          "type": "address"
        }
      ],
      "name": "balanceOf",
      "outputs": [
        {
          "name": "",
          "type": "uint256"
        }
      ],
      "payable": false,
      "stateMutability": "view",
      "type": "function",
      "signature": "0x70a08231"
    },
    {
      "constant": true,
      "inputs": [],
      "name": "oracle",
      "outputs": [
        {
          "name": "",
          "type": "address"
        }
      ],
      "payable": false,
      "stateMutability": "view",
      "type": "function",
      "signature": "0x7dc0d1d0"
    },
    {
      "constant": true,
      "inputs": [],
      "name": "owner",
      "outputs": [
        {
          "name": "",
          "type": "address"
        }
      ],
      "payable": false,
      "stateMutability": "view",
      "type": "function",
      "signature": "0x8da5cb5b"
    },
    {
      "constant": true,
      "inputs": [],
      "name": "symbol",
      "outputs": [
        {
          "name": "",
          "type": "string"
        }
      ],
      "payable": false,
      "stateMutability": "view",
      "type": "function",
      "signature": "0x95d89b41"
    },
    {
      "constant": false,
      "inputs": [
        {
          "name": "_operator",
          "type": "address"
        },
        {
          "name": "_approved",
          "type": "bool"
        }
      ],
      "name": "setApprovalForAll",
      "outputs": [],
      "payable": false,
      "stateMutability": "nonpayable",
      "type": "function",
      "signature": "0xa22cb465"
    },
    {
      "constant": true,
      "inputs": [],
      "name": "totalMinted",
      "outputs": [
        {
          "name": "",
          "type": "uint256"
        }
      ],
      "payable": false,
      "stateMutability": "view",
      "type": "function",
      "signature": "0xa2309ff8"
    },
    {
      "constant": false,
      "inputs": [
        {
          "name": "_from",
          "type": "address"
        },
        {
          "name": "_to",
          "type": "address"
        },
        {
          "name": "_tokenId",
          "type": "uint256"
        },
        {
          "name": "data",
          "type": "bytes"
        }
      ],
      "name": "safeTransferFrom",
      "outputs": [],
      "payable": true,
      "stateMutability": "payable",
      "type": "function",
      "signature": "0xb88d4fde"
    },
    {
      "constant": true,
      "inputs": [],
      "name": "tokenURISuffix",
      "outputs": [
        {
          "name": "",
          "type": "string"
        }
      ],
      "payable": false,
      "stateMutability": "view",
      "type": "function",
      "signature": "0xdbbc853b"
    },
    {
      "constant": true,
      "inputs": [
        {
          "name": "_owner",
          "type": "address"
        },
        {
          "name": "_operator",
          "type": "address"
        }
      ],
      "name": "isApprovedForAll",
      "outputs": [
        {
          "name": "",
          "type": "bool"
        }
      ],
      "payable": false,
      "stateMutability": "view",
      "type": "function",
      "signature": "0xe985e9c5"
    },
    {
      "anonymous": false,
      "inputs": [
        {
          "indexed": true,
          "name": "tokenId",
          "type": "uint256"
        },
        {
          "indexed": false,
          "name": "nftcid",
          "type": "string"
        },
        {
          "indexed": false,
          "name": "timeMinted",
          "type": "uint256"
        },
        {
          "indexed": false,
          "name": "buyer",
          "type": "address"
        },
        {
          "indexed": false,
          "name": "issuer",
          "type": "address"
        }
      ],
      "name": "LogBadgeMinted",
      "type": "event",
      "signature": "0xad88641bd8ec9883a05edcba738abf72feac570215ea7a9361c88f6ddd687b5d"
    },
    {
      "anonymous": false,
      "inputs": [
        {
          "indexed": true,
          "name": "tokenId",
          "type": "uint256"
        },
        {
          "indexed": false,
          "name": "beneficiaries",
          "type": "address[]"
        },
        {
          "indexed": false,
          "name": "splits",
          "type": "uint256[]"
        },
        {
          "indexed": false,
          "name": "usdCostOfBadge",
          "type": "uint256"
        }
      ],
      "name": "LogPaymentProcessed",
      "type": "event",
      "signature": "0xd77a837eeb922067313247d8638ceb6590d3f462cf40aedb03538c2e47d4a1de"
    },
    {
      "anonymous": false,
      "inputs": [
        {
          "indexed": true,
          "name": "_from",
          "type": "address"
        },
        {
          "indexed": true,
          "name": "_to",
          "type": "address"
        },
        {
          "indexed": true,
          "name": "_tokenId",
          "type": "uint256"
        }
      ],
      "name": "Transfer",
      "type": "event",
      "signature": "0xddf252ad1be2c89b69c2b068fc378daa952ba7f163c4a11628f55a4df523b3ef"
    },
    {
      "anonymous": false,
      "inputs": [
        {
          "indexed": true,
          "name": "_owner",
          "type": "address"
        },
        {
          "indexed": true,
          "name": "_approved",
          "type": "address"
        },
        {
          "indexed": true,
          "name": "_tokenId",
          "type": "uint256"
        }
      ],
      "name": "Approval",
      "type": "event",
      "signature": "0x8c5be1e5ebec7d5bd14f71427d1e84f3dd0314c0f7b2291e5b200ac8c7c3b925"
    },
    {
      "anonymous": false,
      "inputs": [
        {
          "indexed": true,
          "name": "_owner",
          "type": "address"
        },
        {
          "indexed": true,
          "name": "_operator",
          "type": "address"
        },
        {
          "indexed": false,
          "name": "_approved",
          "type": "bool"
        }
      ],
      "name": "ApprovalForAll",
      "type": "event",
      "signature": "0x17307eab39ab6107e8899845ad3d59bd9653f200f220920489ca2b5937696c31"
    },
    {
      "constant": true,
      "inputs": [
        {
          "name": "_tokenId",
          "type": "uint256"
        }
      ],
      "name": "tokenURI",
      "outputs": [
        {
          "name": "",
          "type": "string"
        }
      ],
      "payable": false,
      "stateMutability": "view",
      "type": "function",
      "signature": "0xc87b56dd"
    },
    {
      "constant": false,
      "inputs": [
        {
          "name": "_initialiseBadges",
          "type": "address"
        },
        {
          "name": "_initialOracle",
          "type": "address"
        }
      ],
      "name": "setupBadges",
      "outputs": [],
      "payable": false,
      "stateMutability": "nonpayable",
      "type": "function",
      "signature": "0x9c61c755"
    },
    {
      "constant": true,
      "inputs": [
        {
          "name": "_owner",
          "type": "address"
        }
      ],
      "name": "getAllTokens",
      "outputs": [
        {
          "name": "",
          "type": "uint256[]"
        }
      ],
      "payable": false,
      "stateMutability": "view",
      "type": "function",
      "signature": "0x178b6de6"
    },
    {
      "constant": false,
      "inputs": [
        {
          "name": "_oracle",
          "type": "address"
        }
      ],
      "name": "setOracle",
      "outputs": [],
      "payable": false,
      "stateMutability": "nonpayable",
      "type": "function",
      "signature": "0x7adbf973"
    },
    {
      "constant": false,
      "inputs": [
        {
          "name": "_tokenID",
          "type": "uint256"
        },
        {
          "name": "_newID",
          "type": "string"
        }
      ],
      "name": "setTokenURIID",
      "outputs": [],
      "payable": false,
      "stateMutability": "nonpayable",
      "type": "function",
      "signature": "0xa111e184"
    },
    {
      "constant": false,
      "inputs": [
        {
          "name": "_newURIBase",
          "type": "string"
        }
      ],
      "name": "setTokenURIBase",
      "outputs": [],
      "payable": false,
      "stateMutability": "nonpayable",
      "type": "function",
      "signature": "0xda2bbfc7"
    },
    {
      "constant": false,
      "inputs": [
        {
          "name": "_newURISuffix",
          "type": "string"
        }
      ],
      "name": "setTokenURISuffix",
      "outputs": [],
      "payable": false,
      "stateMutability": "nonpayable",
      "type": "function",
      "signature": "0xa9852bfb"
    },
    {
      "constant": false,
      "inputs": [
        {
          "name": "_buyer",
          "type": "address"
        },
        {
          "name": "_nftCid",
          "type": "string"
        },
        {
          "name": "_beneficiaries",
          "type": "address[]"
        },
        {
          "name": "_splits",
          "type": "uint256[]"
        },
        {
          "name": "_usdCost",
          "type": "uint256"
        }
      ],
      "name": "adminMintWithoutPayment",
      "outputs": [
        {
          "name": "tokenId",
          "type": "uint256"
        }
      ],
      "payable": false,
      "stateMutability": "nonpayable",
      "type": "function",
      "signature": "0xc79cb4be"
    },
    {
      "constant": false,
      "inputs": [
        {
          "name": "_buyer",
          "type": "address"
        },
        {
          "name": "_nftCid",
          "type": "string"
        },
        {
          "name": "_beneficiaries",
          "type": "address[]"
        },
        {
          "name": "_splits",
          "type": "uint256[]"
        },
        {
          "name": "_usdCost",
          "type": "uint256"
        }
      ],
      "name": "mint",
      "outputs": [
        {
          "name": "tokenId",
          "type": "uint256"
        }
      ],
      "payable": true,
      "stateMutability": "payable",
      "type": "function",
      "signature": "0x75ca567f"
    },
    {
      "constant": false,
      "inputs": [
        {
          "name": "_tokenId",
          "type": "uint256"
        }
      ],
      "name": "burnToken",
      "outputs": [],
      "payable": false,
      "stateMutability": "nonpayable",
      "type": "function",
      "signature": "0x7b47ec1a"
    }
  ],
  "bytecode": "0x60806040526000600f556010805460a060020a60ff021916905534801561002557600080fd5b506123bb806100356000396000f3006080604052600436106101715763ffffffff60e060020a60003504166301ffc9a7811461017657806306fdde03146101ac578063081812fc14610236578063095ea7b31461026a578063178b6de61461028357806318160ddd146102f45780631d91efa91461031b57806323b872dd14610333578063261220a3146103505780632f745c591461036557806342842e0e146103895780634f6ccce7146103a65780636352211e146103be57806370a08231146103d657806375ca567f146103f75780637adbf973146104c55780637b47ec1a146104e65780637dc0d1d0146104fe5780638da5cb5b1461051357806395d89b41146105285780639c61c7551461053d578063a111e18414610564578063a22cb465146105c2578063a2309ff8146105e8578063a9852bfb146105fd578063b88d4fde14610656578063c79cb4be14610682578063c87b56dd1461075d578063da2bbfc714610775578063dbbc853b146107ce578063e985e9c5146107e3575b600080fd5b34801561018257600080fd5b50610198600160e060020a03196004351661080a565b604080519115158252519081900360200190f35b3480156101b857600080fd5b506101c16108eb565b6040805160208082528351818301528351919283929083019185019080838360005b838110156101fb5781810151838201526020016101e3565b50505050905090810190601f1680156102285780820380516001836020036101000a031916815260200191505b509250505060405180910390f35b34801561024257600080fd5b5061024e600435610976565b60408051600160a060020a039092168252519081900360200190f35b610281600160a060020a03600435166024356109b8565b005b34801561028f57600080fd5b506102a4600160a060020a0360043516610a1e565b60408051602080825283518183015283519192839290830191858101910280838360005b838110156102e05781810151838201526020016102c8565b505050509050019250505060405180910390f35b34801561030057600080fd5b50610309610ad0565b60408051918252519081900360200190f35b34801561032757600080fd5b506101c1600435610ad7565b610281600160a060020a0360043581169060243516604435610b3f565b34801561035c57600080fd5b506101c1610beb565b34801561037157600080fd5b50610309600160a060020a0360043516602435610c46565b610281600160a060020a0360043581169060243516604435610ce5565b3480156103b257600080fd5b50610309600435610e63565b3480156103ca57600080fd5b5061024e600435610e94565b3480156103e257600080fd5b50610309600160a060020a0360043516610ed6565b60408051602060046024803582810135601f8101859004850286018501909652858552610309958335600160a060020a0316953695604494919390910191908190840183828082843750506040805187358901803560208181028481018201909552818452989b9a998901989297509082019550935083925085019084908082843750506040805187358901803560208181028481018201909552818452989b9a9989019892975090820195509350839250850190849080828437509497505093359450610f099350505050565b3480156104d157600080fd5b50610281600160a060020a0360043516610f2c565b3480156104f257600080fd5b50610281600435610f72565b34801561050a57600080fd5b5061024e610fc4565b34801561051f57600080fd5b5061024e610fd3565b34801561053457600080fd5b506101c1610fe2565b34801561054957600080fd5b50610281600160a060020a036004358116906024351661103d565b34801561057057600080fd5b5060408051602060046024803582810135601f81018590048502860185019096528585526102819583359536956044949193909101919081908401838280828437509497506112bd9650505050505050565b3480156105ce57600080fd5b50610281600160a060020a0360043516602435151561131e565b3480156105f457600080fd5b506103096113a2565b34801561060957600080fd5b506040805160206004803580820135601f81018490048402850184019095528484526102819436949293602493928401919081908401838280828437509497506113a89650505050505050565b610281600160a060020a03600480358216916024803590911691604435916064359081019101356113d6565b34801561068e57600080fd5b5060408051602060046024803582810135601f8101859004850286018501909652858552610309958335600160a060020a0316953695604494919390910191908190840183828082843750506040805187358901803560208181028481018201909552818452989b9a998901989297509082019550935083925085019084908082843750506040805187358901803560208181028481018201909552818452989b9a998901989297509082019550935083925085019084908082843750949750509335945061159b9350505050565b34801561076957600080fd5b506101c160043561168c565b34801561078157600080fd5b506040805160206004803580820135601f81018490048402850184019095528484526102819436949293602493928401919081908401838280828437509497506118129650505050505050565b3480156107da57600080fd5b506101c161183c565b3480156107ef57600080fd5b50610198600160a060020a0360043581169060243516611897565b6000600160e060020a031982167f80ac58cd00000000000000000000000000000000000000000000000000000000148061086d5750600160e060020a031982167f5b5e139f00000000000000000000000000000000000000000000000000000000145b806108a15750600160e060020a031982167f780e9d6300000000000000000000000000000000000000000000000000000000145b806108d55750600160e060020a031982167f01ffc9a700000000000000000000000000000000000000000000000000000000145b156108e2575060016108e6565b5060005b919050565b6002805460408051602060018416156101000260001901909316849004601f8101849004840282018401909252818152929183018282801561096e5780601f106109435761010080835404028352916020019161096e565b820191906000526020600020905b81548152906001019060200180831161095157829003601f168201915b505050505081565b6000818152600760205260408120548290600160a060020a0316151561099b57600080fd5b5050600090815260096020526040902054600160a060020a031690565b6000818152600760205260408120548290600160a060020a031615156109dd57600080fd5b826109e7816118c5565b15156109f257600080fd5b600084815260076020526040902054600160a060020a03169250610a17838686611919565b5050505050565b600160a060020a038116600090815260066020908152604080832054815181815281840281019093019091526060929091839190838015610a69578160200160208202803883390190505b509150600090505b82811015610ac857600160a060020a0385166000908152600660205260409020805482908110610a9d57fe5b90600052602060002001548282815181101515610ab657fe5b60209081029091010152600101610a71565b509392505050565b6004545b90565b600e6020908152600091825260409182902080548351601f60026000196101006001861615020190931692909204918201849004840281018401909452808452909183018282801561096e5780601f106109435761010080835404028352916020019161096e565b6000818152600760205260409020548190600160a060020a03161515610b6457600080fd5b838383610b70816118c5565b80610b915750600081815260096020526040902054600160a060020a031633145b1515610b9c57600080fd5b600081815260076020526040902054600160a060020a03848116911614610bc257600080fd5b600160a060020a0382161515610bd757600080fd5b610be28787876119d2565b50505050505050565b600c805460408051602060026001851615610100026000190190941693909304601f8101849004840282018401909252818152929183018282801561096e5780601f106109435761010080835404028352916020019161096e565b600080805260076020527f6d5257204ebe7d88fd91ae87941cb2dd9d8062b64ae5a2bd2d28ec40b9fbf6df548190600160a060020a03161515610c8857600080fd5b600160a060020a0384166000908152600660205260409020548310610cac57600080fd5b600160a060020a0384166000908152600660205260409020805484908110610cd057fe5b906000526020600020015491505b5092915050565b6000818152600760205260408120548290600160a060020a03161515610d0a57600080fd5b848484610d16816118c5565b80610d375750600081815260096020526040902054600160a060020a031633145b1515610d4257600080fd5b600081815260076020526040902054600160a060020a03848116911614610d6857600080fd5b600160a060020a0382161515610d7d57600080fd5b610d888888886119d2565b863b94506000851115610e5957604080517f150b7a0200000000000000000000000000000000000000000000000000000000808252336004830152600160a060020a038b81166024840152604483018a90526080606484015260006084840181905293519193908b169263150b7a029260c48083019360209383900390910190829087803b158015610e1957600080fd5b505af1158015610e2d573d6000803e3d6000fd5b505050506040513d6020811015610e4357600080fd5b5051600160e060020a03191614610e5957600080fd5b5050505050505050565b6004546000908210610e7457600080fd5b6004805483908110610e8257fe5b90600052602060002001549050919050565b6000818152600760205260408120548290600160a060020a03161515610eb957600080fd5b5050600090815260076020526040902054600160a060020a031690565b6000600160a060020a0382161515610eed57600080fd5b50600160a060020a031660009081526006602052604090205490565b6000610f158686611a55565b9050610f2381858585611b7f565b95945050505050565b600054600160a060020a03163314610f4357600080fd5b6010805473ffffffffffffffffffffffffffffffffffffffff1916600160a060020a0392909216919091179055565b80610f7c816118c5565b1515610f8757600080fd5b610f913383611d91565b604051829060009033907fddf252ad1be2c89b69c2b068fc378daa952ba7f163c4a11628f55a4df523b3ef908390a45050565b601054600160a060020a031681565b600054600160a060020a031681565b6003805460408051602060026001851615610100026000190190941693909304601f8101849004840282018401909252818152929183018282801561096e5780601f106109435761010080835404028352916020019161096e565b600054600160a060020a0316331461105457600080fd5b60105474010000000000000000000000000000000000000000900460ff161561107c57600080fd5b6040805180820190915260108082527f506174726f6e616765204261646765730000000000000000000000000000000060209092019182526110c0916002916122bc565b506040805180820190915260068082527f504154524f4e00000000000000000000000000000000000000000000000000006020909201918252611105916003916122bc565b5060408051606081018252602f8082527f68747470733a2f2f697066732e696e667572612e696f3a353030312f6170692f602083019081527f76302f6461672f6765743f6172673d0000000000000000000000000000000000929093019190915261117291600c916122bc565b5060408051602081019182905260009081905261119191600d916122bc565b5060108054600160a060020a0380841673ffffffffffffffffffffffffffffffffffffffff199092169190911790915560408051600481526024810182526020810180517bffffffffffffffffffffffffffffffffffffffffffffffffffffffff167f592e6f590000000000000000000000000000000000000000000000000000000017815291518151938616939192909182919080838360005b8381101561124457818101518382015260200161122c565b50505050905090810190601f1680156112715780820380516001836020036101000a031916815260200191505b50915050600060405180830381855af450506010805474ff0000000000000000000000000000000000000000191674010000000000000000000000000000000000000000179055505050565b600054600160a060020a031633146112d457600080fd5b6000828152600760205260409020548290600160a060020a031615156112f957600080fd5b6000838152600e602090815260409091208351611318928501906122bc565b50505050565b600160a060020a03821633141561133457600080fd5b336000818152600a60209081526040808320600160a060020a03871680855290835292819020805460ff1916861515908117909155815190815290519293927f17307eab39ab6107e8899845ad3d59bd9653f200f220920489ca2b5937696c31929181900390910190a35050565b600f5481565b600054600160a060020a031633146113bf57600080fd5b80516113d290600d9060208401906122bc565b5050565b6000838152600760205260408120548490600160a060020a031615156113fb57600080fd5b868686611407816118c5565b806114285750600081815260096020526040902054600160a060020a031633145b151561143357600080fd5b600081815260076020526040902054600160a060020a0384811691161461145957600080fd5b600160a060020a038216151561146e57600080fd5b6114798a8a8a6119d2565b883b9450600085111561158f5763150b7a0260e060020a027bffffffffffffffffffffffffffffffffffffffffffffffffffffffff191689600160a060020a031663150b7a02338d8c8c8c6040518663ffffffff1660e060020a0281526004018086600160a060020a0316600160a060020a0316815260200185600160a060020a0316600160a060020a0316815260200184815260200180602001828103825284848281815260200192508082843782019150509650505050505050602060405180830381600087803b15801561154f57600080fd5b505af1158015611563573d6000803e3d6000fd5b505050506040513d602081101561157957600080fd5b5051600160e060020a0319161461158f57600080fd5b50505050505050505050565b60008054600160a060020a031633146115b357600080fd5b6115bd8686611a55565b9050807fd77a837eeb922067313247d8638ceb6590d3f462cf40aedb03538c2e47d4a1de858585604051808060200180602001848152602001838103835286818151815260200191508051906020019060200280838360005b8381101561162e578181015183820152602001611616565b50505050905001838103825285818151815260200191508051906020019060200280838360005b8381101561166d578181015183820152602001611655565b505050509050019550505050505060405180910390a295945050505050565b600d8054604080516020601f6002600019610100600188161502019095169490940493840181900481028201810190925282815260609361180c936117269383018282801561171c5780601f106116f15761010080835404028352916020019161171c565b820191906000526020600020905b8154815290600101906020018083116116ff57829003601f168201915b5050505050611fad565b6000848152600e60209081526040918290208054835160026001831615610100026000190190921691909104601f81018490048402820184019094528381526117fb936118079361179993919083018282801561171c5780601f106116f15761010080835404028352916020019161171c565b600c8054604080516020601f600260001961010060018816150201909516949094049384018190048102820181019092528281526117fb939092909183018282801561171c5780601f106116f15761010080835404028352916020019161171c565b9063ffffffff611fd316565b611fad565b92915050565b600054600160a060020a0316331461182957600080fd5b80516113d290600c9060208401906122bc565b600d805460408051602060026001851615610100026000190190941693909304601f8101849004840282018401909252818152929183018282801561096e5780601f106109435761010080835404028352916020019161096e565b600160a060020a039182166000908152600a6020908152604080832093909416825291909152205460ff1690565b600081815260076020526040812054600160a060020a031633148061180c575050600090815260076020908152604080832054600160a060020a03168352600a825280832033845290915290205460ff1690565b600160a060020a03828116908416141561193257600080fd5b600081815260096020526040902054600160a060020a031615801561195e5750600160a060020a038216155b1561196857600080fd5b600081815260096020526040808220805473ffffffffffffffffffffffffffffffffffffffff1916600160a060020a0386811691821790925591518493918716917f8c5be1e5ebec7d5bd14f71427d1e84f3dd0314c0f7b2291e5b200ac8c7c3b92591a45b505050565b600081815260096020526040902054600160a060020a0316156119fb576119fb83600083611919565b611a058382611d91565b611a0f8282612042565b8082600160a060020a031684600160a060020a03167fddf252ad1be2c89b69c2b068fc378daa952ba7f163c4a11628f55a4df523b3ef60405160405180910390a4505050565b600080611a6e6001600f546120f090919063ffffffff16565b600f8190556000818152600e602090815260409091208551929350611a979290918601906122bc565b50611aa28482612042565b807fad88641bd8ec9883a05edcba738abf72feac570215ea7a9361c88f6ddd687b5d84428733604051808060200185815260200184600160a060020a0316600160a060020a0316815260200183600160a060020a0316600160a060020a03168152602001828103825286818151815260200191508051906020019080838360005b83811015611b3b578181015183820152602001611b23565b50505050905090810190601f168015611b685780820380516001836020036101000a031916815260200191505b509550505050505060405180910390a29392505050565b600080601060009054906101000a9004600160a060020a0316600160a060020a03166358836e9f6040518163ffffffff1660e060020a028152600401602060405180830381600087803b158015611bd557600080fd5b505af1158015611be9573d6000803e3d6000fd5b505050506040513d6020811015611bff57600080fd5b5051915060008211611c1057600080fd5b60008311611c1d57600080fd5b611c418383670de0b6b3a7640000811515611c3457fe5b049063ffffffff61210916565b905034811115611c5057600080fd5b80341115611c895760405133903483900380156108fc02916000818181858888f19350505050158015611c87573d6000803e3d6000fd5b505b600185511115611ca357611c9e858583612137565b611cc5565b611cc5856000815181101515611cb557fe5b906020019060200201518261221f565b857fd77a837eeb922067313247d8638ceb6590d3f462cf40aedb03538c2e47d4a1de868686604051808060200180602001848152602001838103835286818151815260200191508051906020019060200280838360005b83811015611d34578181015183820152602001611d1c565b50505050905001838103825285818151815260200191508051906020019060200280838360005b83811015611d73578181015183820152602001611d5b565b505050509050019550505050505060405180910390a2505050505050565b6000818152600560205260408120546004805491929081906000198401848110611db757fe5b9060005260206000200154600485815481101515611dd157fe5b90600052602060002001819055508360056000600460018703815481101515611df657fe5b9060005260206000200154815260200190815260200160002081905550600460018403815481101515611e2557fe5b6000918252602082200155600480546000190190611e43908261233a565b505050600083815260086020908152604080832054600160a060020a038816845260069092529091208054906000198201828110611e7d57fe5b6000918252602080832090910154600160a060020a038916835260069091526040909120805484908110611ead57fe5b90600052602060002001819055508160086000600660008a600160a060020a0316600160a060020a0316815260200190815260200160002060018503815481101515611ef557fe5b90600052602060002001548152602001908152602001600020819055506006600087600160a060020a0316600160a060020a0316815260200190815260200160002060018203815481101515611f4757fe5b60009182526020808320909101829055600160a060020a0388168252600690526040902080546000190190611f7c908261233a565b50505060009283525050600760205260409020805473ffffffffffffffffffffffffffffffffffffffff1916905550565b611fb561235e565b50604080518082019091528151815260209182019181019190915290565b606080600083600001518560000151016040519080825280601f01601f191660200182016040528015612010578160200160208202803883390190505b50915060208201905061202c8186602001518760000151612255565b845160208501518551610ac89284019190612255565b60048054600181810183557f8a35acfbc15ff81a39ae7d344fd709f28e8600b4aa8c65c6b64bfe7fe36bd19b909101839055905460008381526005602090815260408083206000199485019055600782528083208054600160a060020a0390981673ffffffffffffffffffffffffffffffffffffffff199098168817905595825260068152858220805494850181558083528183209094018590559254938152600890925292902091019055565b60008282018381101561210257600080fd5b9392505050565b60008083151561211c5760009150610cde565b5082820282848281151561212c57fe5b041461210257600080fd5b6000808351855114151561214a57600080fd5b5060009050805b845181101561221257848181518110151561216857fe5b90602001906020020151600160a060020a03166108fc6121b760646121ab87898781518110151561219557fe5b602090810290910101519063ffffffff61210916565b9063ffffffff61229916565b6040518115909202916000818181858888f193505050501580156121df573d6000803e3d6000fd5b5061220884828151811015156121f157fe5b60209081029091010151839063ffffffff6120f016565b9150600101612151565b60648214610a1757600080fd5b604051600160a060020a0383169082156108fc029083906000818181858888f193505050501580156119cd573d6000803e3d6000fd5b60005b6020821061227a578251845260209384019390920191601f1990910190612258565b50905182516020929092036101000a6000190180199091169116179052565b6000808083116122a857600080fd5b82848115156122b357fe5b04949350505050565b828054600181600116156101000203166002900490600052602060002090601f016020900481019282601f106122fd57805160ff191683800117855561232a565b8280016001018555821561232a579182015b8281111561232a57825182559160200191906001019061230f565b50612336929150612375565b5090565b8154818355818111156119cd576000838152602090206119cd918101908301612375565b604080518082019091526000808252602082015290565b610ad491905b80821115612336576000815560010161237b5600a165627a7a72305820fd4c0baa51b2ef61ddb1c326d2fa084f2ff434c5bd0df042f0f925c46a554df30029",
  "source": "pragma solidity ^0.4.24;\nimport \"./utils/SafeMath.sol\";\nimport \"./utils/strings.sol\";\nimport \"./IUSDETHOracle.sol\";\nimport \"./eip721/EIP721.sol\";\n\n\ncontract ProxyState {\n\n    address public owner;\n    address internal delegate;\n\n    /* NOTE:\n    - A brief explanation on how this works and why this is necessary.\n    - Storage is allocated sequentially in Solidity.\n    - Variables names essentially map to a position in storage.\n    - In using delegatecall, it executes the code in the context of the calling contract.\n    - Thus, it will be dereferenced to point to some storage slot based on its position of declaration.\n    - So, if the calling contract has a variable \"owner\" and the and the called contract\n    also has a variable \"owner\", it doesn't mean it will point to the same storage slot.\n    - It will only point to the same storage slot IF, and only IF, the variable \"owner\"\n    was declared in the same position.\n    - In this case, the proxy itself has two allocated storage slots: 1) owner & 2) delegate.\n    - Thus, any contract that is delegatecalled should ONLY be referencing storage *after*\n    the first two declarations.\n    - If you want to use the variables in the proxy's state, the variable declarations doesn't\n    have to be the same, but it helps to read better if they are.\n    - Order matters.\n    - Thus, reading the functions contract: it is proxy vars, then EIP721 vars, then its own.\n    - When the called contract is executed, then it will execute on the calling contract state.\n    - This contract can be interacted on its without being delegated towards, writing to its own storage.\n    - Nothing about writing to its own storage is detrimental to the function of the proxy [unlikely\n    the Parity Wallet hack where the contract could self-destruct].\n    */\n}\n\n\ncontract UjoPatronageBadgesFunctions is ProxyState, EIP721 {\n    using SafeMath for uint256;\n    using strings for *;\n\n    string public tokenURIBase;\n    string public tokenURISuffix;\n    mapping (uint256 => string) public tokenURIIDs;\n\n    uint256 public totalMinted = 0;\n\n    IUSDETHOracle public oracle;\n\n    bool internal setup = false;\n\n    modifier onlyProxyOwner() {\n        require(msg.sender == owner);\n        _;\n    }\n\n    event LogBadgeMinted(uint256 indexed tokenId, string nftcid, uint256 timeMinted, address buyer, address issuer);\n    event LogPaymentProcessed(uint256 indexed tokenId, address[] beneficiaries, uint256[] splits, uint256 usdCostOfBadge);\n\n    // overload inherited tokenURI\n    function tokenURI(uint256 _tokenId) external view returns (string) {\n        return tokenURIBase.toSlice().concat(tokenURIIDs[_tokenId].toSlice()).toSlice().concat(tokenURISuffix.toSlice());\n    }\n\n    function setupBadges(address _initialiseBadges, address _initialOracle) public onlyProxyOwner {\n        require(!setup);\n        name = \"Patronage Badges\";\n        symbol = \"PATRON\";\n        tokenURIBase = \"https://ipfs.infura.io:5001/api/v0/dag/get?arg=\";\n        tokenURISuffix = \"\";\n        oracle = IUSDETHOracle(_initialOracle);\n        // this issues a delegatecall in case there needs to be an initial setup the badges.\n        // eg, creating 100 initial badges for example.\n        _initialiseBadges.delegatecall(abi.encodeWithSignature(\"initialise()\")); // solhint-disable-line avoid-low-level-calls\n        setup = true;\n    }\n\n    // additional helper function not in EIP721.\n    function getAllTokens(address _owner) public view returns (uint256[]) {\n        uint size = ownedTokens[_owner].length;\n        uint[] memory result = new uint256[](size);\n        for (uint i = 0; i < size; i++) {\n            result[i] = ownedTokens[_owner][i];\n        }\n        return result;\n    }\n    /* function testGetDelegate() public view returns(address) {\n        return delegate;\n    } */\n\n    function setOracle(address _oracle) public onlyProxyOwner {\n        oracle = IUSDETHOracle(_oracle);\n    }\n\n    // URI is the CID\n    // solhint-disable-next-line func-param-name-mixedcase\n    function setTokenURIID(uint256 _tokenID, string _newID) public onlyProxyOwner tokenExists(_tokenID) {\n        tokenURIIDs[_tokenID] = _newID;\n    }\n\n    function setTokenURIBase(string _newURIBase) public onlyProxyOwner {\n        tokenURIBase = _newURIBase;\n    }\n\n    function setTokenURISuffix(string _newURISuffix) public onlyProxyOwner {\n        tokenURISuffix = _newURISuffix;\n    }\n\n    /* in the unlikely event that a badge needs to be minted but not paid for */\n    function adminMintWithoutPayment(address _buyer, string _nftCid, address[] _beneficiaries, uint256[] _splits, uint256 _usdCost) public onlyProxyOwner returns (uint256 tokenId) {\n        tokenId = createBadge(_buyer, _nftCid);\n\n        // there's no payment, but log as if it occurred.\n        emit LogPaymentProcessed(tokenId, _beneficiaries, _splits, _usdCost);\n    }\n\n    function mint(address _buyer, string _nftCid, address[] _beneficiaries, uint256[] _splits, uint256 _usdCost) public payable returns (uint256 tokenId) {\n        tokenId = createBadge(_buyer, _nftCid);\n        processETHPayment(tokenId, _beneficiaries, _splits, _usdCost);\n        // note: tokenId is automatically returned due to naming.\n    }\n\n    function burnToken(uint256 _tokenId) public allowedToOperate(_tokenId) {\n        removeToken(msg.sender, _tokenId);\n        emit Transfer(msg.sender, 0, _tokenId);\n    }\n\n    /* internal functions */\n    function processETHPayment(uint256 _tokenId, address[] _beneficiaries, uint256[] _splits, uint256 _usdCost) internal {\n        uint256 exchangeRate = oracle.getUintPrice();\n\n        require(exchangeRate > 0);\n        require(_usdCost > 0);\n\n        // note: division is not done with SafeMath because 1 ether in Solidity is int_const\n        // also: divs impossible to over/underflow\n        uint256 totalWei = (1 ether / exchangeRate).mul(_usdCost);\n        require(msg.value >= totalWei);\n\n        //  Send back remainder.\n        if (msg.value > totalWei) {\n            msg.sender.transfer(msg.value - totalWei);\n        }\n\n        // transfer funds\n        if (_beneficiaries.length > 1) {\n            processETHMultiplePayments(_beneficiaries, _splits, totalWei);\n        } else {\n            proccessETHSinglePayment(_beneficiaries[0], totalWei);\n        }\n\n        emit LogPaymentProcessed(_tokenId, _beneficiaries, _splits, _usdCost);\n    }\n\n    function proccessETHSinglePayment(address _beneficiary, uint256 _totalWei) internal {\n        _beneficiary.transfer(_totalWei);\n    }\n\n    function processETHMultiplePayments(address[] _beneficiaries, uint256[] _splits, uint256 _totalWei) internal {\n        require(_beneficiaries.length == _splits.length);\n\n        // note: allowing a split to be zero.\n\n        uint256 totalSplits = 0;\n        for (uint256 i = 0; i < _beneficiaries.length; i += 1) {\n            _beneficiaries[i].transfer(_splits[i].mul(_totalWei).div(100));\n            totalSplits = totalSplits.add(_splits[i]);\n        }\n\n        require(totalSplits == 100);\n    }\n\n    function createBadge(address _buyer, string _nftCid) internal returns (uint256) {\n        totalMinted = totalMinted.add(1); // basically impossible to overflow, but still keeping SafeMath.\n        uint256 tokenId = totalMinted; // start IDs at 1, since returning 0 could be confusing.\n        tokenURIIDs[tokenId] = _nftCid;\n\n        addToken(_buyer, tokenId);\n        emit LogBadgeMinted(tokenId, _nftCid, now, _buyer, msg.sender); // solhint-disable-line not-rely-on-time\n        return tokenId;\n    }\n}\n",
  "sourcePath": "/Users/alexander/Development/ujo.js/packages/contracts-badges/contracts/UjoPatronageBadgesFunctions.sol",
  "compiler": {
    "name": "solc",
    "version": "0.4.24+commit.e67f0147.Emscripten.clang"
  },
  "schemaVersion": "3.0.1",
  "updatedAt": "2019-02-04T20:26:03.793Z",
  "devdoc": {
    "methods": {
      "approve(address,uint256)": {
        "details": "The zero address indicates there is no approved address.  Throws unless `msg.sender` is the current NFT owner, or an authorized  operator of the current owner.",
        "params": {
          "_approved": "The new approved NFT controller",
          "_tokenId": "The NFT to approve"
        }
      },
      "balanceOf(address)": {
        "details": "NFTs assigned to the zero address are considered invalid, and this  function throws for queries about the zero address.",
        "params": {
          "_owner": "An address for whom to query the balance"
        },
        "return": "The number of NFTs owned by `_owner`, possibly zero"
      },
      "getApproved(uint256)": {
        "details": "Throws if `_tokenId` is not a valid NFT",
        "params": {
          "_tokenId": "The NFT to find the approved address for"
        }
      },
      "isApprovedForAll(address,address)": {
        "params": {
          "_operator": "The address that acts on behalf of the owner",
          "_owner": "The address that owns the NFTs"
        },
        "return": "True if `_operator` is an approved operator for `_owner`, false otherwise"
      },
      "ownerOf(uint256)": {
        "details": "NFTs assigned to zero address are considered invalid, and queries  about them do throw.",
        "params": {
          "_tokenId": "The identifier for an NFT"
        },
        "return": "The address of the owner of the NFT"
      },
      "safeTransferFrom(address,address,uint256)": {
        "details": "This works identically to the other function with an extra data parameter,  except this function just sets data to \"\"",
        "params": {
          "_from": "The current owner of the NFT",
          "_to": "The new owner",
          "_tokenId": "The NFT to transfer"
        }
      },
      "safeTransferFrom(address,address,uint256,bytes)": {
        "details": "Throws unless `msg.sender` is the current owner, an authorized  operator, or the approved address for this NFT. Throws if `_from` is  not the current owner. Throws if `_to` is the zero address. Throws if  `_tokenId` is not a valid NFT. When transfer is complete, this function  checks if `_to` is a smart contract (code size > 0). If so, it calls  `onERC721Received` on `_to` and throws if the return value is not  `bytes4(keccak256(\"onERC721Received(address,address,uint256,bytes)\"))`.",
        "params": {
          "_from": "The current owner of the NFT",
          "_to": "The new owner",
          "_tokenId": "The NFT to transfer",
          "data": "Additional data with no specified format, sent in call to `_to`"
        }
      },
      "setApprovalForAll(address,bool)": {
        "details": "Emits the ApprovalForAll event. The contract MUST allow  multiple operators per owner.",
        "params": {
          "_approved": "True if the operator is approved, false to revoke approval",
          "_operator": "Address to add to the set of authorized operators."
        }
      },
      "supportsInterface(bytes4)": {
        "details": "Interface identification is specified in ERC-165. This function  uses less than 30,000 gas.",
        "params": {
          "interfaceID": "The interface identifier, as specified in ERC-165"
        },
        "return": "`true` if the contract implements `interfaceID` and `interfaceID` is not 0xffffffff, `false` otherwise"
      },
      "tokenByIndex(uint256)": {
        "details": "Throws if `_index` >= `totalSupply()`.",
        "params": {
          "_index": "A counter less than `totalSupply()`"
        },
        "return": "The token identifier for the `_index`th NFT,  (sort order not specified)"
      },
      "tokenOfOwnerByIndex(address,uint256)": {
        "details": "Throws if `_index` >= `balanceOf(_owner)` or if  `_owner` is the zero address, representing invalid NFTs.",
        "params": {
          "_index": "A counter less than `balanceOf(_owner)`",
          "_owner": "An address where we are interested in NFTs owned by them"
        },
        "return": "The token identifier for the `_index`th NFT assigned to `_owner`,   (sort order not specified)"
      },
      "totalSupply()": {
        "return": "A count of valid NFTs tracked by this contract, where each one of  them has an assigned and queryable owner not equal to the zero address"
      },
      "transferFrom(address,address,uint256)": {
        "details": "Throws unless `msg.sender` is the current owner, an authorized  operator, or the approved address for this NFT. Throws if `_from` is  not the current owner. Throws if `_to` is the zero address. Throws if  `_tokenId` is not a valid NFT.",
        "params": {
          "_from": "The current owner of the NFT",
          "_to": "The new owner",
          "_tokenId": "The NFT to transfer"
        }
      }
    }
  },
  "userdoc": {
    "methods": {
      "approve(address,uint256)": {
        "notice": "Change or reaffirm the approved address for an NFT."
      },
      "balanceOf(address)": {
        "notice": "Count all NFTs assigned to an owner"
      },
      "getApproved(uint256)": {
        "notice": "Get the approved address for a single NFT"
      },
      "isApprovedForAll(address,address)": {
        "notice": "Query if an address is an authorized operator for another address"
      },
      "ownerOf(uint256)": {
        "notice": "Find the owner of an NFT"
      },
      "safeTransferFrom(address,address,uint256)": {
        "notice": "Transfers the ownership of an NFT from one address to another address"
      },
      "safeTransferFrom(address,address,uint256,bytes)": {
        "notice": "Transfers the ownership of an NFT from one address to another address"
      },
      "setApprovalForAll(address,bool)": {
        "notice": "Enable or disable approval for a third party (\"operator\") to manage  all of `msg.sender`'s assets."
      },
      "supportsInterface(bytes4)": {
        "notice": "Query if a contract implements an interface"
      },
      "tokenByIndex(uint256)": {
        "notice": "Enumerate valid NFTs"
      },
      "tokenOfOwnerByIndex(address,uint256)": {
        "notice": "Enumerate NFTs assigned to an owner"
      },
      "totalSupply()": {
        "notice": "Count NFTs tracked by this contract"
      },
      "transferFrom(address,address,uint256)": {
        "notice": "Transfer ownership of an NFT -- THE CALLER IS RESPONSIBLE  TO CONFIRM THAT `_to` IS CAPABLE OF RECEIVING NFTS OR ELSE  THEY MAY BE PERMANENTLY LOST"
      }
    }
  }
}