{
  "contractName": "UjoPatronageBadges",
  "abi": [
    {
      "constant": false,
      "inputs": [],
      "name": "renounceOwnership",
      "outputs": [],
      "payable": false,
      "stateMutability": "nonpayable",
      "type": "function",
      "signature": "0x715018a6"
    },
    {
      "constant": true,
      "inputs": [],
      "name": "owner",
      "outputs": [
        {
          "name": "",
          "type": "address"
        }
      ],
      "payable": false,
      "stateMutability": "view",
      "type": "function",
      "signature": "0x8da5cb5b"
    },
    {
      "constant": false,
      "inputs": [
        {
          "name": "_newOwner",
          "type": "address"
        }
      ],
      "name": "transferOwnership",
      "outputs": [],
      "payable": false,
      "stateMutability": "nonpayable",
      "type": "function",
      "signature": "0xf2fde38b"
    },
    {
      "inputs": [
        {
          "name": "_owner",
          "type": "address"
        },
        {
          "name": "_delegate",
          "type": "address"
        }
      ],
      "payable": false,
      "stateMutability": "nonpayable",
      "type": "constructor",
      "signature": "constructor"
    },
    {
      "payable": true,
      "stateMutability": "payable",
      "type": "fallback"
    },
    {
      "anonymous": false,
      "inputs": [
        {
          "indexed": true,
          "name": "previousOwner",
          "type": "address"
        }
      ],
      "name": "OwnershipRenounced",
      "type": "event",
      "signature": "0xf8df31144d9c2f0f6b59d69b8b98abd5459d07f2742c4df920b25aae33c64820"
    },
    {
      "anonymous": false,
      "inputs": [
        {
          "indexed": true,
          "name": "previousOwner",
          "type": "address"
        },
        {
          "indexed": true,
          "name": "newOwner",
          "type": "address"
        }
      ],
      "name": "OwnershipTransferred",
      "type": "event",
      "signature": "0x8be0079c531659141344cd1fd0a4f28419497f9722a3daafe3b4186f6b6457e0"
    },
    {
      "constant": false,
      "inputs": [
        {
          "name": "_delegate",
          "type": "address"
        }
      ],
      "name": "setDelegate",
      "outputs": [],
      "payable": false,
      "stateMutability": "nonpayable",
      "type": "function",
      "signature": "0xca5eb5e1"
    }
  ],
  "bytecode": "0x608060405234801561001057600080fd5b5060405160408061033483398101604052805160209091015160008054600160a060020a03938416600160a060020a031991821617909155600180549390921692169190911790556102cd806100676000396000f3006080604052600436106100615763ffffffff7c0100000000000000000000000000000000000000000000000000000000600035041663715018a6811461006b5780638da5cb5b14610080578063ca5eb5e1146100b1578063f2fde38b146100d2575b6100696100f3565b005b34801561007757600080fd5b5061006961010d565b34801561008c57600080fd5b50610095610179565b60408051600160a060020a039092168252519081900360200190f35b3480156100bd57600080fd5b50610069600160a060020a0360043516610188565b3480156100de57600080fd5b50610069600160a060020a03600435166101ce565b6100fb61010b565b61010b6101066101f1565b610200565b565b600054600160a060020a0316331461012457600080fd5b60008054604051600160a060020a03909116917ff8df31144d9c2f0f6b59d69b8b98abd5459d07f2742c4df920b25aae33c6482091a26000805473ffffffffffffffffffffffffffffffffffffffff19169055565b600054600160a060020a031681565b600054600160a060020a0316331461019f57600080fd5b6001805473ffffffffffffffffffffffffffffffffffffffff1916600160a060020a0392909216919091179055565b600054600160a060020a031633146101e557600080fd5b6101ee81610224565b50565b600154600160a060020a031690565b3660008037600080366000845af43d6000803e80801561021f573d6000f35b3d6000fd5b600160a060020a038116151561023957600080fd5b60008054604051600160a060020a03808516939216917f8be0079c531659141344cd1fd0a4f28419497f9722a3daafe3b4186f6b6457e091a36000805473ffffffffffffffffffffffffffffffffffffffff1916600160a060020a03929092169190911790555600a165627a7a72305820d1a05f5b529ddf0eeac1bf2fc6a2ecb72fc083b55735b851c84c2df23f5cb1490029",
  "source": "pragma solidity ^0.4.24;\nimport \"./Proxy.sol\";\nimport \"./Ownable.sol\";\n\n/*\nContains refactor of tokenURI\nand badge numbers\n*/\n\ncontract UjoPatronageBadges is Proxy, Ownable {\n\n    /* --- */\n    address internal delegate;\n    /* --- */\n\n    // solhint-disable-next-line visibility-modifier-order\n    constructor(address _owner, address _delegate) Ownable(_owner) public {\n        delegate = _delegate; //starting delegate.\n    }\n\n    /* upgrade or change functions of badges */\n    function setDelegate(address _delegate) public onlyOwner {\n        delegate = _delegate;\n    }\n\n    function _implementation() internal view returns (address) {\n        return delegate;\n    }\n}\n",
  "sourcePath": "/Users/alexander/Development/ujo.js/packages/contracts-badges/contracts/UjoPatronageBadges.sol",
  "compiler": {
    "name": "solc",
    "version": "0.4.24+commit.e67f0147.Emscripten.clang"
  },
  "schemaVersion": "3.0.1",
  "updatedAt": "2019-02-04T20:26:03.776Z",
  "devdoc": {
    "methods": {
      "renounceOwnership()": {
        "details": "Allows the current owner to relinquish control of the contract."
      },
      "transferOwnership(address)": {
        "details": "Allows the current owner to transfer control of the contract to a newOwner.",
        "params": {
          "_newOwner": "The address to transfer ownership to."
        }
      }
    }
  },
  "userdoc": {
    "methods": {
      "renounceOwnership()": {
        "notice": "Renouncing to ownership will leave the contract without an owner. It will not be possible to call the functions with the `onlyOwner` modifier anymore."
      }
    }
  }
}