{
  "contractName": "TestOracle",
  "abi": [
    {
      "constant": true,
      "inputs": [],
      "name": "price",
      "outputs": [
        {
          "name": "",
          "type": "uint256"
        }
      ],
      "payable": false,
      "stateMutability": "view",
      "type": "function"
    },
    {
      "constant": true,
      "inputs": [],
      "name": "lastUpdated",
      "outputs": [
        {
          "name": "",
          "type": "uint256"
        }
      ],
      "payable": false,
      "stateMutability": "view",
      "type": "function"
    },
    {
      "inputs": [],
      "payable": false,
      "stateMutability": "nonpayable",
      "type": "constructor"
    },
    {
      "constant": true,
      "inputs": [],
      "name": "getUintPrice",
      "outputs": [
        {
          "name": "",
          "type": "uint256"
        }
      ],
      "payable": false,
      "stateMutability": "view",
      "type": "function"
    },
    {
      "constant": false,
      "inputs": [
        {
          "name": "_price",
          "type": "uint256"
        }
      ],
      "name": "setPrice",
      "outputs": [],
      "payable": false,
      "stateMutability": "nonpayable",
      "type": "function"
    }
  ],
  "bytecode": "0x6080604052600160005534801561001557600080fd5b50426001819055506101678061002c6000396000f300608060405260043610610062576000357c0100000000000000000000000000000000000000000000000000000000900463ffffffff16806358836e9f1461006757806391b7f5ed14610092578063a035b1fe146100bf578063d0b06f5d146100ea575b600080fd5b34801561007357600080fd5b5061007c610115565b6040518082815260200191505060405180910390f35b34801561009e57600080fd5b506100bd6004803603810190808035906020019092919050505061011e565b005b3480156100cb57600080fd5b506100d461012f565b6040518082815260200191505060405180910390f35b3480156100f657600080fd5b506100ff610135565b6040518082815260200191505060405180910390f35b60008054905090565b426001819055508060008190555050565b60005481565b600154815600a165627a7a7230582003f66d4e9bafc04a2331c9f49773992bab81627c24eae4a7090f7b6a119a1f0a0029",
  "source": "/*\nUsed in testing to see if the Handler properly fetches it.\nRelies on getPrice() to return a string.\n*/\npragma solidity ^0.4.21;\n\n\ncontract TestOracle {\n    uint public price = 1; // 1 eth = 1 usd for simplicity of testing.\n    uint256 public lastUpdated;\n\n    function TestOracle() public {\n        lastUpdated = now; // solhint-disable-line not-rely-on-time\n    }\n\n    function getUintPrice() public view returns (uint) {\n        return price;\n    }\n\n    function setPrice(uint _price) public {\n        lastUpdated = now; // solhint-disable-line not-rely-on-time\n        price = _price;\n    }\n}\n",
  "sourcePath": "/Users/jpschwartz/Documents/ConsenSys/Ujo/ujo-js/ujo.js/contracts/TestOracle.sol",
  "compiler": {
    "name": "solc",
    "version": "0.4.24+commit.e67f0147.Emscripten.clang"
  },
  "schemaVersion": "2.0.1",
  "updatedAt": "2019-01-25T16:30:44.854Z"
}